:020000040800F2
:1000000000100020111C0008C91B0008CF1B0008AD
:1000100000000000000000000000000000000000E0
:10002000000000000000000000000000D51B0008D8
:100030000000000000000000DF1B0008E91B0008B2
:10004000611C000800000000611C0008611C000821
:10005000611C0008F71B0008611C0008611C0008F7
:1000600000000000611C0008611C0008611C000801
:10007000611C0008611C0008611C000800000000F1
:10008000611C00080000000000000000611C000866
:1000900000000000611C0008611C0008611C0008D1
:1000A00000000000611C000800000000611C000846
:1000B0000000000000000000000000000000000040
:1000C00010B5064C2378002B07D1054B002B02D02E
:1000D000044800E000BF0123237010BD1000002081
:1000E0000000000090460008044B10B5002B03D020
:1000F0000349044800E000BF10BDC04600000000F6
:100100001400002090460008002243088B4274D35C
:1001100003098B425FD3030A8B4244D3030B8B4208
:1001200028D3030C8B420DD3FF22090212BA030C11
:100130008B4202D31212090265D0030B8B4219D3F2
:1001400000E0090AC30B8B4201D3CB03C01A524112
:10015000830B8B4201D38B03C01A5241430B8B425A
:1001600001D34B03C01A5241030B8B4201D30B0343
:10017000C01A5241C30A8B4201D3CB02C01A52416A
:10018000830A8B4201D38B02C01A5241430A8B422D
:1001900001D34B02C01A5241030A8B4201D30B0216
:1001A000C01A5241CDD2C3098B4201D3CB01C01A30
:1001B000524183098B4201D38B01C01A524143093A
:1001C0008B4201D34B01C01A524103098B4201D328
:1001D0000B01C01A5241C3088B4201D3CB00C01A95
:1001E000524183088B4201D38B00C01A524143080D
:1001F0008B4201D34B00C01A5241411A00D2014632
:10020000524110467047FFE701B5002000F006F8A4
:1002100002BDC0460029F7D076E770477047C04658
:10022000002B15D1002A13D1002906DB01DC0028A0
:1002300006D00020C043410802E0802109060020CA
:1002400007B4024801A14018029003BDD1FFFFFF8F
:1002500003B4684601B5029800F034F8019B9E464D
:1002600002B00CBC7047C046F0B5CE46474680B5DC
:10027000070099463B0C9C4613041B0C1D000E0006
:1002800061460004140C000C45434B43604361433A
:10029000C0182C0C20188C46834203D980235B02A3
:1002A0009846C444494679437243030C63442D0481
:1002B0002D0CC918000440198918C0BCB946B046B5
:1002C000F0BDC046F8B5CE46474680B59146984643
:1002D00004000D0000F098F907000E0002000B006A
:1002E00048464146FFF7C0FF241A8D41089B38005D
:1002F00031001C605D60C0BCB946B046F8BDC04668
:10030000F0B54F464646D6464502C0B547000C1CE0
:100310006D0A3F0EC60F002F00D170E0FF2F00D1F5
:1003200075E0EB008025ED041D43002399469A46B5
:100330007F3F6002430A984663001B0EE40F002BC8
:100340004ED0FF2B46D04246D0008022D20402433A
:10035000904600227F3B3100FF1A4B466140C9B2F4
:1003600013430F2B00D9B5E06E489B00C3589F463E
:10037000002398462600454692465346022B00D15C
:1003800089E0032B00D19EE0012B18D03B007F3386
:10039000002B69DD6A0704D00F222A40042A00D00E
:1003A00004352A0103D5604B1D403B008033FE2BF2
:1003B00000DD70E0AD016D0AD8B202E00E00002051
:1003C0000025C0052843F6073043E0BCBA46B146D5
:1003D000A846F0BD4346002B3FD10222FF3F03E079
:1003E0004346002B2DD1012231004B466140C9B25A
:1003F00013430F2B34D84D489B00C3589F46002D04
:1004000013D104239946033B00279A4691E7002D18
:1004100005D108239946063BFF279A4689E70C2316
:100420009946093BFF279A4683E7280000F0CEF85B
:100430007627431F9D4000237F4299469A463F1AE4
:1004400077E7404600F0C2F84246431F9A407623C1
:100450005B4290461B1A00227DE7FF2303227AE7C6
:100460000E00FF200025ACE70120C01A1B28A6DCE7
:100470009E372A00BD40C2406B1E9D4115436B074D
:1004800004D00F232B40042B00D004356B0144D53E
:100490000120002595E7FF20002592E78025002612
:1004A000FF20ED038DE7002398468020C00305421E
:1004B00009D04346034206D1454605436D02260056
:1004C000FF206D0A7DE78020C00305436D02FF20F9
:1004D0006D0A76E742466B015001834219D21B2216
:1004E0000025013F01261C006D005B00002C01DB94
:1004F000984201D81B1A3543013A002AF3D15A1EFB
:1005000093411D433B007F330E00002B00DD41E78C
:10051000AAE71A2201251B1AE4E7AD0100206D0AA3
:100520004FE7C046D4460008FFFFFFF71447000816
:10053000F8B5002813D0C317C6185E40C40F3000AA
:1005400000F044F89E2305001B1A962B0FDC0828A8
:1005500001DD083DAE407602760AD8B202E0002402
:1005600000200026C0053043E4072043F8BD992B46
:100570000CDD05223100121AD1400A0001003000C2
:100580001B318840411E884102431600052D12DCB4
:1005900031000D4F3940720709D00F203040042838
:1005A00005D004314A0102D59F2339405B1B8901E4
:1005B0004E0AD8B2D6E76A1F96403100024F394042
:1005C0007207F4D0E9E7C046FFFFFFFB1C210123BF
:1005D0001B04984201D3000C10391B0A984201D326
:1005E000000A08391B09984201D30009043902A204
:1005F000105C40187047C04604030202010101016B
:100600000000000000000000F0B557464E46454689
:10061000DE46E0B50F0019000023060098461000E2
:1006200083B0002F07DA33003C0000275E42A74169
:1006300001235B429846002907DA4346DB430C005E
:100640009846030000215842A14134003D008246F3
:100650008946B9426AD867D04946504600F0BAF890
:1006600083463900300000F0B5F85B461B1A9C4603
:10067000203B9B466BD458465146814060460B0058
:10068000514681400A00BB4200D972E0BB4200D112
:1006900079E034003D005946A41A9D41002900DA52
:1006A00074E00021002001260090019159468E40FF
:1006B0000196614601268E406146009600295FD072
:1006C000D90756080E435F086146012200230CE05B
:1006D000AF4201D1A6420AD8A41BBD4124196D41E5
:1006E0000139A4185D41002906D0AF42F0D9013983
:1006F00024196D410029F8D1009801995B46001931
:100700006941002B4DDB2E002C00DE406346DC40AF
:100710005B46002B55DB34009C4023006446A6401A
:100720003200801A994103E0B04295D9002000219F
:100730004346002B04D003000C0000215842A14185
:1007400003B0F0BCBB46B246A946A046F0BD624627
:1007500048462023514690409B1AD94003000091FF
:10076000009960460B43514681400A00BB4200D8C5
:100770008CE70021002000900191614600299FD163
:1007800000980199D4E7B142F3D882E76146202668
:100790000127761A00200021F7400090019101976F
:1007A00087E7624620239B1A2A009A4026001300FE
:1007B0006246D6402C001E436346DC405B46002B5D
:1007C000A9DA62462023350094409B1ADD402300BD
:1007D0002B43A3E710B5002903D1FFF7F7FE203024
:1007E00002E00800FFF7F2FE10BDC046B0B588B0C9
:1007F00004AF040008001100BB1D221C1A807B1DE1
:10080000021C1A703B1D0A1C1A700F257B1900224E
:100810001A707B1D1B789AB27C19BB1D19880C4875
:1008200080235B020293012301933B1D009301236C
:1008300001F09AFD030023707B191B78002B02D076
:10084000044B03221A70C046BD4604B0B0BDC0467A
:100850006000002054000020F0B589B004AF020011
:10086000BB1D1A807B1D0A1C1A700F257B190022E4
:100870001A700E26BB1900221A707B1D1B789AB2C3
:100880007C19BB1D19880D4880235B02029301234C
:100890000193BB190093012301F094FE0300237020
:1008A0007B191B78002B02D0054B02221A700E23F5
:1008B000FB181B781800BD4605B0F0BD6000002095
:1008C00054000020B0B588B004AF3A60BB1D021CD4
:1008D0001A807B1D0A1C1A700F257B1900221A70C2
:1008E0007B1D1B789AB27C19BB1D19880B4880238D
:1008F0005B020293022301933B680093012301F002
:1009000061FE030023707B191B78002B02D0044B7F
:1009100002221A70C046BD4604B0B0BD600000207F
:1009200054000020B0B588B004AF3A60BB1D021C73
:100930001A807B1D0A1C1A700F257B1900221A7061
:100940007B1D1B789AB27C19BB1D19880B4880232C
:100950005B020293032301933B680093012301F0A0
:1009600031FE030023707B191B78002B02D0044B4F
:1009700002221A70C046BD4604B0B0BD600000201F
:100980005400002080B582B000AF0200FB1D1A7039
:10099000BB1D0A1C1A70BB1D1A78FB1D1B781900A1
:1009A000EC20FFF723FFC046BD4602B080BDB0B5C6
:1009B00084B000AF0200FB1D1A700F257C19FB1DCF
:1009C0001B781900EC20FFF747FF030023707B1909
:1009D0001B781800BD4604B0B0BD80B582B000AF32
:1009E00002003960FB1D1A703A68FB1D1B78190064
:1009F000EC20FFF767FFC046BD4602B080BD80B562
:100A000082B000AF02003960FB1D1A703A68FB1D0E
:100A10001B781900EC20FFF755FFC046BD4602B019
:100A200080BD80B582B000AF02003960FB1D1A7036
:100A30003A68FB1D1B781900EC20FFF773FF3B6839
:100A40001B681B0CFF221A403B681968FF231B021E
:100A50000B401A433B681B681904FF231B040B401F
:100A600013431B021A0A3B681A60C046BD4602B017
:100A700080BD80B582B000AFF320FFF798FF030080
:100A80001900FB1D09220A401A70FB1D1B78180073
:100A9000BD4602B080BD000080B500AF1F4B1900FD
:100AA0008820FFF79AFF1E4B19008A20FFF7A7FF47
:100AB0001C4B19008C20FFF7A2FF1B4B19008E2046
:100AC000FFF78BFF194B19009020FFF798FF184B89
:100AD00019009220FFF793FF164B19009420FFF79F
:100AE0008EFF154B19009620FFF789FF134B190055
:100AF0009820FFF784FF124B19009A20FFF77FFF21
:100B0000104B19009C20FFF77AFF0F4B19009E2015
:100B1000FFF775FFC046BD4680BDC0462C000020D3
:100B20002E00002030000020320000203400002081
:100B300036000020380000203A0000203C00002051
:100B40003E000020400000204200002080B584B01C
:100B500000AF0200FB1D1A70F520FFF728FF03000D
:100B600019000F203B181F220A401A70FB1D1B782A
:100B70005BB21F2293435AB23B181B785BB21343FC
:100B80005AB23B181A703B181B781900F520FFF772
:100B9000F9FEC046BD4604B080BD80B584B000AF4C
:100BA0000200FB1D1A70F520FFF701FF030019007A
:100BB0000F203B181C2291430A001A70FB1D1B7862
:100BC0005BB21C2213405AB23B181B785BB2134332
:100BD0005AB23B181A703B181B781900F520FFF722
:100BE000D1FEC046BD4604B080BD80B584B000AF24
:100BF0000200FB1D1A70F420FFF7D9FE0300190054
:100C00000F203B181F220A401A70FB1D1B785BB295
:100C10001F2293435AB23B181B785BB213435AB25C
:100C20003B181A703B181B781900F420FFF7AAFE36
:100C3000C046BD4604B080BD80B584B000AF0200A0
:100C4000FB1D1A70F420FFF7B2FE030019000F20FD
:100C50003B181C2291430A001A70FB1D1B785BB2E3
:100C60001C2213405AB23B181B785BB213435AB292
:100C70003B181A703B181B781900F420FFF782FE0E
:100C8000C046BD4604B080BD80B584B000AF020050
:100C9000FB1D1A70F420FFF78AFE030019000F20D5
:100CA0003B18032291430A001A70FB1D1B785BB2AC
:100CB000032213405AB23B181B785BB213435AB25B
:100CC0003B181A703B181B781900F420FFF75AFEE6
:100CD000C046BD4604B080BD80B586B000AF0023DD
:100CE0007B613B1D1900FA20FFF79BFE7B683B618F
:100CF0003B691B113B613B69DA101C4B1B885B0095
:100D0000D31A1A4A0221525E5343DB12FB603B693D
:100D10001B11164A12889B1A3A6912111349098845
:100D2000521A53431B13114A0421525E53439B131F
:100D3000BB60FA68BB68D2180D4B1A600C4B1A687E
:100D400013009B009B1880331B121800FFF7F0FB69
:100D5000031C7B6107497869FFF7D2FA031C7B61AA
:100D60007B69181CBD4606B080BDC0462C00002023
:100D7000500000200000C842F0B5B1B000AFFFF74E
:100D8000ABFFA026BB191900F720FFF74AFE32007F
:100D9000BB181B681B09BA181360694B1B683B66BC
:100DA000DB177B66674A01235B42386E796E8018D9
:100DB000594102000B00B826B9190A604B60BB19F3
:100DC0001A685B68B91908684968FFF74DFA0200AC
:100DD0000B00100019005C4B10229B5EBB65DB17FB
:100DE000FB65BA6DFB6DFFF73FFA02000B00B02107
:100DF000781802604360544B0E229B5E3B65DB1704
:100E00007B65BB191A685B68386D796DFFF72CFA42
:100E100002000B00D10B5D040D435404B0217B187C
:100E20001A685B6812196B41781802604360464B80
:100E30000C229B5EBB64DB17FB64BB6CDB007B643A
:100E400000233B640C007B181A685B68386C796C73
:100E500012184B4139190A604B60BB191A685B685C
:100E6000B91908684968FFF7FFF902000B00100084
:100E70001900354B0A229B5EBB63DB17FB63BA6B21
:100E8000FB6BFFF7F1F902000B001906100A98241A
:100E90003D192860381900680843391908601B1289
:100EA0009C22BA181360284B08229B5E3B63DB1719
:100EB0007B63BB191A685B68386B796BFFF7D4F9F1
:100EC00002000B00110D8C46180394257919086057
:100ED0007819006861460843791908601303902166
:100EE0007A1813603B191A685B68791808684968B2
:100EF00012184B41B9190A604B60BB191868596840
:100F0000002280231B02801859410F4BDB88BB62F3
:100F10000023FB62BA6AFB6AFFF7A6F902000B0026
:100F20005910B8190160DB17BC217A181360BB197E
:100F30001A687B181B681A4308D1002311E1C046C8
:100F400050000020000CFEFF2C000020A023FB1806
:100F50001A6880235B039B1AA8243A1913600023A4
:100F6000AC257A1913603B191B685B087B623B193F
:100F70001B68DB073B62B0203A1853681268386A76
:100F8000796A801A9941794A0023FFF76DF90200C6
:100F90000B0010001900B826BA1953681268FFF741
:100FA0003FF902000B0039190A604B60704B1622A2
:100FB0009B5EBB61DB17FB617A191368DA04391990
:100FC0000B685B0B8821781803607B181B68134340
:100FD0000A00B9180B6079190B685B138C2179181A
:100FE0000B60BA1853681268B869F969FFF73CF9E1
:100FF00002000B00100019007A191368DB049C46EC
:101000003B191B685B0B8026BA191360BB191B6860
:10101000624613433200BE1833607B191B685B13B2
:101020008426BE193360BA1853681268FFF71CF99A
:1010300002000B00D801510E0143B826B819016017
:101040005B16BC22BA181360494B14229B5E3B61AD
:10105000DB177B613A195368126838697969FFF7C1
:1010600003F902000B005803D10C0143B0203818DB
:101070000160DB14B422BA1813603A191068516881
:10108000BA195368126880185941B023FB181A68BE
:101090005B6812184B411906100AB867B86F08430D
:1010A000B8671B12FB67324B12229B5EBB60DB17DB
:1010B000FB60B968FA680B001B0F1000000178672D
:1010C000786F184378670B001B013B67BA6FFB6FA3
:1010D000386F796F12184B4139190A604B607B19D0
:1010E0001B681B0621003A191268120ABA66BA6E0A
:1010F0001A43BA667B191B681B12FB66BA6E130093
:101100005B019B1A9B009B18DB001C007B181B6873
:10111000FF2213403B607B191B68002213407B6059
:10112000144A002338687968FFF79EF802000B0024
:1011300010001900104A0023FFF772F802000B009C
:101140001300E318A4243A1913603B191B68FA2210
:1011500091001800FEF7D8FF03003A1913603B19FD
:101160001B681800BD4631B0F0BDC046350C00000C
:101170002C000020E1F50500A086010080B500AF3D
:10118000024B1B781800BD4680BDC04654000020AD
:1011900090B583B000AFFB1D00221A70FC1DD0205B
:1011A000FFF705FC03002370FB1D1B78602B03D0A9
:1011B000124B01221A701DE0B621E020FFF7E2FB7E
:1011C000C046FFF756FC03001A0001231340F8D174
:1011D000FFF762FCA020FFF7B9FC0820FFF7DDFC59
:1011E0006020FFF702FD0820FFF726FD0320FFF730
:1011F0004BFDC046BD4603B090BDC0465400002024
:1012000080B582B000AF78600A4B1B680A491800AD
:10121000FEF77AFF03001A007B6853437B60C046E9
:101220007B685A1E7A60002BFAD1C046C046BD4684
:1012300002B080BD04000020C0C62D0090B587B06C
:1012400002AF0200FB1D1A700F243B1900221A7016
:10125000802319019023DB050022180000F0B4FF61
:101260003A19F91D1348FA239B000093012302F059
:101270003DFEFB1D1B78072B0CD00E217B18FF2297
:101280001A703A1979180B48FA239B00009301232E
:1012900002F02CFE802319019023DB0501221800A7
:1012A00000F092FF0F23FB181B781800BD4605B015
:1012B00090BDC046B400002080B582B000AF0200EF
:1012C000FB1D1A70BB1D0A1C1A70FB1D1B78202207
:1012D0001343DAB2FB1D1A70802319019023DB053A
:1012E0000022180000F070FFFA239B00F91D0B4844
:1012F000012202F057FBFA239B00B91D0748012287
:1013000002F050FB802319019023DB050122180015
:1013100000F05AFFC046BD4602B080BDB4000020B8
:1013200080B582B000AF3B1D154A12781A70802339
:1013300019019023DB050022180000F045FFFA2375
:101340009B00391D0F48012202F02CFB0120FFF702
:1013500057FF3B1D73221A70FA239B00391D094861
:10136000012202F01FFB802319019023DB050122DB
:10137000180000F029FFC046BD4602B080BDC0463F
:10138000A8460008B400002080B582B000AF3960E4
:101390001100FB1D021C1A70BB1D0A1C1A70802351
:1013A00019019023DB050022180000F00DFFFA233D
:1013B0009B00F91D0C48012202F0F4FABB1D1B78BA
:1013C0009AB2FA239B003968074802F043FC802355
:1013D00019019023DB050122180000F0F5FEC0463C
:1013E000BD4602B080BDC046B400002080B582B0CA
:1013F00000AF39601100FB1D021C1A70BB1D0A1CD6
:101400001A70FB1D1B7820221343DAB2FB1D1A70E1
:10141000802319019023DB050022180000F0D4FE80
:10142000FA239B00F91D0E48012202F0BBFA0120AD
:10143000FFF7E6FEBB1D1B789AB2FA239B003968C2
:10144000074802F0AFFA802319019023DB0501223F
:10145000180000F0B9FEC046BD4602B080BDC046CF
:10146000B400002080B582B000AF3B1D104A127856
:101470001A70802319019023DB050022180000F068
:10148000A3FEFA239B00391D0A48012202F08AFAC2
:101490000120FFF7B5FE802319019023DB0501220F
:1014A000180000F091FEC046BD4602B080BDC046A7
:1014B000AC460008B400002080B582B000AF3B1DF0
:1014C000104A12781A70802319019023DB0500223C
:1014D000180000F079FEFA239B00391D0A4801220A
:1014E00002F060FA0120FFF78BFE802319019023A0
:1014F000DB050122180000F067FEC046BD4602B0C1
:1015000080BDC046B0460008B400002090B583B04E
:1015100000AFFB1D00221A70FC1D0020FFF78EFE9D
:1015200003002370FB1DFA1D127803210A431A7071
:10153000FB1D1B7819000020FFF7BEFE8023590118
:101540009023DB050122180000F03EFE9620FFF7F5
:1015500057FEFFF787FFFFF7AFFFC046BD4603B05A
:1015600090BD000090B583B000AFFB1D00221A7043
:10157000BB1D00221A70FC1D0720FFF75FFE030051
:101580002370BC1D1720FFF759FE03002370084B82
:10159000052219006120FFF7F7FE064B052219000E
:1015A000A920FFF723FFC046BD4603B090BDC0464B
:1015B00058000020AC00002090B583B000AFFB1DA8
:1015C00000221A70FC1D0720FFF738FE030023706D
:1015D000FB1D1B78402213400FD0FFF7C3FF4021B3
:1015E0000720FFF769FEFB1D1B78202213400DD05A
:1015F00020210720FFF760FE08E0FB1D1B7820225A
:10160000134003D020210720FFF756FEC046BD46F9
:1016100003B090BD80B500AF802359019023DB0556
:101620000022180000F0D0FD214B1800FFF7E8FD64
:101630000A210020FFF740FE1D4B1800FFF7E0FDD8
:1016400007210120FFF738FE06210220FFF734FEB4
:1016500001210320FFF730FE5F210420FFF72CFE5D
:10166000FFF75EFE06211D20FFF726FE07211C2046
:10167000FFF722FE70210720FFF71EFE46210520FE
:10168000FFF71AFE26210620FFF716FE094B03225C
:1016900019001020FFF7AAFE064B032219000B20A9
:1016A000FFF7A4FEFFF732FFC046BD4680BDC0462F
:1016B000881300000000002090B589B000AF0C2412
:1016C0003B19180014231A00002102F0D9FF414BE6
:1016D0005A69404B8021C9030A435A613D4B5A69FC
:1016E0008023DB031340BB60BB683A4B5A69394B1C
:1016F000802189020A435A61364B5A6980239B0232
:1017000013407B607B68334B5A69324B8021C9029E
:101710000A435A612F4B5A698023DB0213403B6016
:101720003B68C02359019023DB050022180000F01C
:101730004BFD3B1901221A603B19842292035A6027
:101740003B1900229A603A199023DB05110018001A
:1017500000F0CAFB3B19204A1A603B1903225A6069
:101760003B1900229A603A199023DB0511001800FA
:1017700000F0BAFB3B193B221A603B1903225A6066
:101780003B1900229A603B19144A1900100000F01E
:10179000ABFB21007B18C02252011A607B1801228A
:1017A0005A607B1800229A607B180022DA607A184F
:1017B0009023DB051100180000F096FB00220021A9
:1017C000052000F05FFB052000F071FBC046BD4620
:1017D00009B090BD001002401E87000000040048C0
:1017E00080B500AF1B4B1C4A1A601A4B1B4A5A604B
:1017F000184B00229A60174B0122DA60154B002229
:101800001A61144B00225A61124B00229A61114B4B
:101810000022DA610F4B00221A620E4B180000F012
:101820000DFD031E01D000F01CF90A4B0021180029
:1018300001F04EFA031E01D000F013F9054B002110
:10184000180001F091FA031E01D000F00AF9C04619
:10185000BD4680BD6000002000540040BB7C70008D
:1018600090B58BB000AF786014243B191800142396
:101870001A00002102F004FF7B681B681C4A934297
:1018800031D11C4B5A691B4B8021C9020A435A6152
:10189000184B5A698023DB0213403B613B692100EE
:1018A0007B18C0221A607B1812225A607B18002213
:1018B0009A607B180322DA607B1801221A617B1878
:1018C0000D4A1900100000F00FFB0A4BDA69094BB2
:1018D000802189030A43DA61064BDA6980239B037E
:1018E0001340FB60FB68C046BD460BB090BDC046D0
:1018F00000540040001002400004004880B584B04D
:1019000000AF0B23FB1800221A700823FB180122DA
:101910001A80BB1D00221A8000F0A4F900F032F8F2
:10192000FFF7CAFEFFF75CFF00F0A0F8FFF730FCFE
:10193000FFF770FEFFF722FC031E03D1FFF71CFA2E
:101940000300FB60FB68DAB20D4B1A70FB681B0AE0
:10195000FB60FB68DAB20A4B5A70FB681B0AFB603B
:10196000FB68DAB2064B9A70BB1D1B88DAB2044BD7
:10197000DA700823FB181B88DAB2014B1A71D9E719
:10198000AC00002090B595B000AF20243B191800A2
:1019900030231A00002102F073FE1023FB181800F8
:1019A00010231A00002102F06BFE3B0018001023E8
:1019B0001A00002102F064FE21007B1801221A6047
:1019C0007B1801225A607B1802221A627B1880223F
:1019D00052025A627B18802212039A627B180022FC
:1019E000DA627B18180001F00BFA031E01D000F038
:1019F00038F810217B1807221A607B1802225A60DF
:101A00007B1800229A607B180022DA607B18012183
:101A1000180001F00FFD031E01D000F022F83B007A
:101A200020221A603B001022DA603B00180001F00F
:101A300033FE031E01D000F014F8C046BD4615B0B9
:101A400090BD80B582B000AF0200BB1D1A80BB1DE7
:101A50001B88012B01D1FFF7AFFDC046BD4602B088
:101A600080BD80B500AF72B6C046FEE780B500AF5E
:101A70001B4B1C4A1A601A4B822252005A60184BA8
:101A800000229A60164BE022D200DA60144B00224A
:101A90001A61134B00225A61114B802292009A6105
:101AA0000F4B1822DA610E4B00221A620C4B0022F7
:101AB0005A620B4B00229A62094B0722DA62084BEA
:101AC00000221A63064B08225A63054B180001F0E6
:101AD000B1FE031E01D0FFF7C4FFC046BD4680BD66
:101AE000B40000200030014090B58BB000AF7860AA
:101AF00014243B19180014231A00002102F0C0FD21
:101B00007B681B681C4A934232D11C4B9A691B4B61
:101B1000802149010A439A61184B9A6980235B012D
:101B200013403B613B69154B5A69144B8021890274
:101B30000A435A61114B5A6980239B021340FB6090
:101B4000FB6821007B18E0221A607B1802225A6091
:101B50007B1800229A607B180322DA607B1800222F
:101B60001A617A189023DB051100180000F0BCF907
:101B7000C046BD460BB090BD003001400010024091
:101B800080B582B000AF0F4B9A690E4B01210A431A
:101B90009A610C4B9B69012213407B607B68094B67
:101BA000DA69084B802149050A43DA61054BDA6995
:101BB00080235B0513403B603B68C046BD4602B0D6
:101BC00080BDC0460010024080B500AFFEE780B582
:101BD00000AFFEE780B500AFC046BD4680BD80B512
:101BE00000AFC046BD4680BD80B500AF00F082F8B2
:101BF000C046BD4680BD80B500AF012000F002FBAD
:101C0000C046BD4680BD80B500AFC046BD4680BD64
:101C10000D4885460D480E490E4A002302E0D4586F
:101C2000C4500433C4188C42F9D30B4A0B4C002324
:101C300001E013600432A242FBD3FFF7E4FF02F09D
:101C4000FBFCFFF75BFEFEE7001000200000002019
:101C50001000002074470008100000201C01002024
:101C6000FEE7000080B500AF074B1A68064B102155
:101C70000A431A60032000F009F8FFF781FF0023F0
:101C80001800BD4680BDC0460020024090B583B01C
:101C900000AF7860144B1C68144B1B781900FA23B2
:101CA0009800FEF731FA030019002000FEF72CFA25
:101CB0000300180000F00BF9031E01D001230FE010
:101CC0007B68032B0BD8796801235B420022180044
:101CD00000F0D8F8064B7A681A60002300E0012370
:101CE0001800BD4603B090BD040000200C00002089
:101CF0000800002080B500AF054B1B781A00054B8B
:101D00001B68D218034B1A60C046BD4680BDC04652
:101D10000C0000201801002080B500AF024B1B68AA
:101D20001800BD4680BDC0461801002080B582B0B5
:101D300000AF0200FB1D1A70FB1D1B787F2B09D81A
:101D4000FB1D1B781A001F231A40044B01219140F0
:101D50000A001A60C046BD4602B080BD00E100E046
:101D600090B583B000AF02003960FB1D1A70FB1DF7
:101D70001B787F2B28D82F4AFB1D1B785BB29B0852
:101D8000C0339B009B58FA1D1278110003220A40B1
:101D9000D200FF2191400A00D2431A4011003B6853
:101DA0009B01FF221A40FB1D1B78180003230340F0
:101DB000DB009A401F48FB1D1B785BB29B080A435F
:101DC000C0339B001A5031E01B4AFB1D1B781900E1
:101DD0000F230B40083B9B0806339B00D3180433AA
:101DE0001B68FA1D1278110003220A40D200FF215D
:101DF00091400A00D2431A4011003B689B01FF2228
:101E00001A40FB1D1B78180003230340DB009A4097
:101E10000948FB1D1B781C000F232340083B9B082F
:101E20000A4306339B00C31804331A60C046BD46FC
:101E300003B090BD00E100E000ED00E080B582B0AD
:101E400000AF78607B685A1E80235B049A4201D3FE
:101E5000012310E00A4B7A68013A5A6001235B4281
:101E600003211800FFF77CFF054B00229A60044B0A
:101E700007221A6000231800BD4602B080BDC0468C
:101E800010E000E080B584B000AFB9607A600F2147
:101E90007B18021C1A70BA687B181B785BB21100A1
:101EA0001800FFF75DFFC046BD4604B080BD80B599
:101EB00082B000AF0200FB1D1A70FB1D1B785BB2E5
:101EC0001800FFF733FFC046BD4602B080BD80B5A5
:101ED00082B000AF78607B681800FFF7AFFF0300A7
:101EE0001800BD4602B080BD80B586B000AF7860F6
:101EF000396000237B614FE13B681B6801217A69EF
:101F000091400A001340FB60FB68002B00D140E1C8
:101F10003B685B6803221340012B05D03B685B687C
:101F200003221340022B30D17B689B683B617B69A5
:101F30005B0003229A401300DA433B6913403B6184
:101F40003B68DA687B695B009A4013003A69134387
:101F50003B617B683A699A607B685B683B61012200
:101F60007B699A401300DA433B6913403B613B684D
:101F70005B681B0901221A407B699A4013003A6989
:101F800013433B617B683A695A603B685B68032294
:101F90001340032B17D07B68DB683B617B695B00D8
:101FA00003229A401300DA433B6913403B613B68CC
:101FB0009A687B695B009A4013003A6913433B615E
:101FC0007B683A69DA603B685B6803221340022B46
:101FD00023D17B69DA087B6808329200D3583B61D1
:101FE0007B69072213409B000F229A401300DA43BB
:101FF0003B6913403B613B681A697B6907210B40D1
:102000009B009A4013003A6913433B617B69DA08ED
:102010007B68083292003969D1507B681B683B614C
:102020007B695B0003229A401300DA433B6913404B
:102030003B613B685B6803221A407B695B009A4006
:1020400013003A6913433B617B683A691A603B6845
:102050005A68C0239B02134000D19AE0544B9A69FE
:10206000534B01210A439A61514B9B690122134052
:10207000BB60BB684F4A7B699B0802339B009B583F
:102080003B617B69032213409B000F229A4013009F
:10209000DA433B6913403B617A689023DB059A423F
:1020A00013D07B68444A93420DD07B68434A9342E5
:1020B00007D07B68424A934201D1032306E00523FF
:1020C00004E0022302E0012300E000237A690321F7
:1020D0000A40920093403A6913433B6135497B695A
:1020E0009B0802339B003A695A50364B1B683B6190
:1020F000FB68DA433B6913403B613B685A688023C5
:102100005B02134003D03A69FB6813433B612D4BDC
:102110003A691A602B4B5B683B61FB68DA433B69A9
:1021200013403B613B685A6880239B02134003D0F5
:102130003A69FB6813433B61224B3A695A60214B71
:102140009B683B61FB68DA433B6913403B613B683A
:102150005A6880235B03134003D03A69FB6813433A
:102160003B61184B3A699A60164BDB683B61FB6830
:10217000DA433B6913403B613B685A6880239B0309
:10218000134003D03A69FB6813433B610D4B3A6936
:10219000DA607B6901337B613B681A687B69DA40EE
:1021A000131E00D0A8E6C046C046BD4606B080BD9E
:1021B00000100240000001400004004800080048F0
:1021C000000C00480004014080B582B000AF786088
:1021D00008001100BB1C021C1A807B1C0A1C1A7010
:1021E0007B1C1B78002B04D0BB1C1A887B689A616F
:1021F00003E0BB1C1A887B689A62C046BD4602B0E9
:1022000080BD000080B582B000AF0200BB1D1A8007
:10221000094B5B69BA1D1288134008D0064BBA1DE2
:1022200012885A61BB1D1B881800FFF70AFCC046C4
:10223000BD4602B080BDC0460004014080B582B0FA
:1022400000AF78607B68002B01D1012382E07B68BE
:1022500041229B5CDBB2002B07D17B68402200212E
:1022600099547B681800FFF7FBFA7B684122242110
:1022700099547B681B681A687B681B6801218A4334
:102280001A607B685A687B681B6834490A401A6187
:102290007B681B689A687B681B6831490A409A60B2
:1022A0007B68DB68012B08D17B689A687B681B68B8
:1022B000802109020A439A6007E07B689A687B687C
:1022C0001B68842109020A439A607B68DB68022B41
:1022D00004D17B681B68802212015A607B681B68EE
:1022E0005A687B681B681F490A435A607B681B68F1
:1022F000DA687B681B681A490A40DA607B681A69E9
:102300007B685B691A4311007B689B691A027B68D2
:102310001B680A43DA607B68D9697B681A6A7B6844
:102320001B680A431A607B681B681A687B681B6815
:1023300001210A431A607B6800225A647B684122AB
:10234000202199547B6800221A637B684222002175
:10235000995400231800BD4602B080BDFFFFFFF076
:10236000FF7FFFFF0080000290B589B002AFF860E8
:102370000C00100019000A23FB18221C1A800823E5
:10238000FB18021C1A80BB1D0A1C1A80FB68412224
:102390009B5CDBB2202B00D00CE1BB6A002B04D08D
:1023A0002C23FB181B88002B05D1FB688022920090
:1023B0005A640123FFE0FB6840229B5C012B01D1A2
:1023C0000223F8E0FB68402201219954FFF7A4FCA6
:1023D00003007B6180231902F8687B69009319234D
:1023E000012200F00BFB031E01D00123E3E0FB6898
:1023F000412221219954FB68422240219954FB68D3
:1024000000225A64FB68BA6A5A62FB682C22BA1826
:1024100012885A85FB6800225A63BB1D1C8808235A
:10242000FB181A880A23FB181988F8687B6901933E
:102430003B6B0093230000F0F9F9031E05D0FB6805
:102440004022002199540123B5E0FB685B8D9BB2CB
:10245000FF2B11D9FB68FF221A85FB681B8DDAB2AE
:1024600080235C040A23FB181988F8680023009372
:10247000230000F0F7FB12E0FB685B8D9AB2FB686B
:102480001A85FB681B8DDAB280239C040A23FB1893
:102490001988F86800230093230000F0E3FB7A69B1
:1024A000396BFB68180000F0E8FA031E01D0012325
:1024B00081E0FB685B6A1A78FB681B689A62FB68BC
:1024C0005B6A5A1CFB685A62FB685B8D9BB2013BDE
:1024D0009AB2FB685A85FB681B8D013B9AB2FB6878
:1024E0001A85FB685B8D9BB2002B3AD0FB681B8D75
:1024F000002B36D13A6BF8687B69009313000022F9
:10250000802100F07BFA031E01D0012353E0FB6819
:102510005B8D9BB2FF2B11D9FB68FF221A85FB68EC
:102520001B8DDAB280235C040A23FB181988F86833
:1025300000230093230000F095FB12E0FB685B8D05
:102540009AB2FB681A85FB681B8DDAB280239C0463
:102550000A23FB181988F86800230093230000F071
:1025600081FBFB685B8D9BB2002B98D17A69396B3C
:10257000FB68180000F0C0FA031E01D001231AE026
:10258000FB681B682022DA61FB681B685A68FB68DD
:102590001B680B490A405A60FB684122202199546C
:1025A000FB68422200219954FB6840220021995483
:1025B000002300E002231800BD4607B090BDC046CE
:1025C00000E800FE90B589B002AFF8600C00100082
:1025D00019000A23FB18221C1A800823FB18021C6E
:1025E0001A80BB1D0A1C1A80FB6841229B5CDBB26F
:1025F000202B00D010E1BB6A002B04D02C23FB1849
:102600001B88002B05D1FB68802292005A640123AD
:1026100003E1FB6840229B5C012B01D10223FCE01B
:10262000FB68402201219954FFF776FB03007B6190
:1026300080231902F8687B6900931923012200F0B6
:10264000DDF9031E01D00123E7E0FB6841222221CE
:102650009954FB68422240219954FB6800225A6435
:10266000FB68BA6A5A62FB682C22BA1812885A852B
:10267000FB6800225A63BB1D1C880823FB181A88BC
:102680000A23FB181988F8687B6901933B6B009358
:10269000230000F02FF9031E05D0FB684022002123
:1026A00099540123B9E0FB685B8D9BB2FF2B11D9D4
:1026B000FB68FF221A85FB681B8DDAB280235C045D
:1026C0000A23FB181988F868564B0093230000F082
:1026D000C9FA12E0FB685B8D9AB2FB681A85FB6849
:1026E0001B8DDAB280239C040A23FB181988F86832
:1026F0004C4B0093230000F0B5FA3A6BF8687B6905
:10270000009313000022042100F078F9031E01D089
:10271000012382E0FB681B685A6AFB685B6AD2B2DD
:102720001A70FB685B6A5A1CFB685A62FB681B8D57
:10273000013B9AB2FB681A85FB685B8D9BB2013B3B
:102740009AB2FB685A85FB685B8D9BB2002B3AD02E
:10275000FB681B8D002B36D13A6BF8687B690093C0
:1027600013000022802100F049F9031E01D001234B
:1027700053E0FB685B8D9BB2FF2B11D9FB68FF22F6
:102780001A85FB681B8DDAB280235C040A23FB18D0
:102790001988F86800230093230000F063FA12E020
:1027A000FB685B8D9AB2FB681A85FB681B8DDAB2F9
:1027B00080239C040A23FB181988F86800230093DF
:1027C000230000F04FFAFB685B8D9BB2002B94D185
:1027D0007A69396BFB68180000F08EF9031E01D08E
:1027E00001231AE0FB681B682022DA61FB681B6882
:1027F0005A68FB681B680C490A405A60FB68412212
:1028000020219954FB68422200219954FB68402200
:1028100000219954002300E002231800BD4607B0B0
:1028200090BDC0460024008000E800FEB0B586B030
:1028300002AFF8600C00100019000A257B19221C59
:102840001A800823FB18021C1A80BB1D0A1C1A8060
:10285000BB1D1B88DAB280235C047B191988F868D9
:10286000234B0093230000F0FDF97A6A396AFB6874
:10287000180000F002F9031E01D0012333E0BB1D54
:102880001B88012B07D10823FB181B88DAB2FB68D1
:102890001B689A6219E00823FB181B881B0A9BB26D
:1028A000DAB2FB681B689A627A6A396AFB681800B8
:1028B00000F0E3F8031E01D0012314E00823FB1805
:1028C0001B88DAB2FB681B689A623A6AF8687B6A0E
:1028D000009313000022802100F090F8031E01D025
:1028E000012300E000231800BD4604B0B0BDC0467F
:1028F00000200080B0B586B002AFF8600C00100078
:1029000019000A257B19221C1A800823FB18021CB7
:102910001A80BB1D0A1C1A80BB1D1B88DAB27B19EA
:102920001988F868234B0093002300F09BF97A6A1A
:10293000396AFB68180000F0A0F8031E01D00123DB
:1029400033E0BB1D1B88012B07D10823FB181B8814
:10295000DAB2FB681B689A6219E00823FB181B882F
:102960001B0A9BB2DAB2FB681B689A627A6A396A00
:10297000FB68180000F081F8031E01D0012314E069
:102980000823FB181B88DAB2FB681B689A623A6A54
:10299000F8687B6A009313000022402100F02EF8B3
:1029A000031E01D0012300E000231800BD4604B03F
:1029B000B0BDC0460020008080B582B000AF786016
:1029C0007B681B689B6902221340022B03D17B6842
:1029D0001B6800229A627B681B689B690122134076
:1029E000012B07D07B681B689A697B681B680121F3
:1029F0000A439A61C046BD4602B080BD80B584B02E
:102A000000AFF860B9603B60FB1D1A7021E03B68C5
:102A100001331ED0FFF780F90200BB69D31A3A6870
:102A20009A4202D33B68002B13D1FB685B6C2022D7
:102A30001A43FB685A64FB68412220219954FB68C1
:102A4000422200219954FB6840220021995401231D
:102A50000FE0FB681B689B69BA681340BA68D31A19
:102A60005A425341DBB21A00FB1D1B789A42CED06A
:102A700000231800BD4604B080BD80B584B000AF0F
:102A8000F860B9607A602BE07A68B968FB68180072
:102A900000F06EF8031E01D0012329E0BB6801336A
:102AA0001ED0FFF739F902007B68D31ABA689A4240
:102AB00002D3BB68002B13D1FB685B6C20221A4346
:102AC000FB685A64FB68412220219954FB6842222A
:102AD00000219954FB68402200219954012307E00A
:102AE000FB681B689B6902221340022BCCD1002398
:102AF0001800BD4604B080BD80B584B000AFF8605A
:102B0000B9607A6028E07A68B968FB68180000F05C
:102B10002FF8031E01D0012326E0FFF7FDF8020085
:102B20007B68D31ABA689A4202D3BB68002B13D1D0
:102B3000FB685B6C20221A43FB685A64FB684122E5
:102B400020219954FB68422200219954FB684022BD
:102B500000219954012307E0FB681B689B69202230
:102B60001340202BCFD100231800BD4604B080BDF8
:102B700080B584B000AFF860B9607A60FB681B680C
:102B80009B6910221340102B64D1FB681B685A68A4
:102B900080239B041A4080239B049A422BD0FB681D
:102BA0001B685A68FB681B688021C9010A435A6088
:102BB00021E0BB6801331ED0FFF7AEF802007B684E
:102BC000D31ABA689A4202D3BB68002B13D1FB68B0
:102BD0005B6C20221A43FB685A64FB684122202167
:102BE0009954FB68422200219954FB68402200213D
:102BF000995401232FE0FB681B689B692022134036
:102C0000202BD6D1FB681B681022DA61FB681B6899
:102C10002022DA61FB681800FFF7CEFEFB681B6814
:102C20005A68FB681B680E490A405A60FB685B6C77
:102C300004221A43FB685A64FB68412220219954FC
:102C4000FB68422200219954FB68402200219954DC
:102C5000012300E000231800BD4604B080BDC0463B
:102C600000E800FE90B585B000AFF86008001100E4
:102C70007B600A243B19021C1A8009203B180A1C9D
:102C80001A70FB681B685B683A6A510D8022D2009B
:102C90000A400E490A43D2431A4011003B191B88CF
:102CA0009B059A0D3B181B781804FF231B04034057
:102CB0001A437B681A433B6A1A43FB681B680A4342
:102CC0005A60C046BD4605B090BDC046FF63FF03D5
:102CD00080B582B000AF786039607B6841229B5C30
:102CE000DBB2202B38D17B6840229B5C012B01D1C9
:102CF000022332E07B684022012199547B68412203
:102D0000242199547B681B681A687B681B68012121
:102D10008A431A607B681B681A687B681B681149C4
:102D20000A401A607B681B6819687B681B683A68F0
:102D30000A431A607B681B681A687B681B6801215C
:102D40000A431A607B684122202199547B68402203
:102D500000219954002300E002231800BD4602B070
:102D600080BDC046FFEFFFFF80B584B000AF786044
:102D700039607B6841229B5CDBB2202B39D17B68B8
:102D800040229B5C012B01D1022333E07B6840226F
:102D9000012199547B684122242199547B681B6846
:102DA0001A687B681B6801218A431A607B681B686C
:102DB0001B68FB60FB68114A1340FB603B681B0209
:102DC000FA681343FB607B681B68FA681A607B68CB
:102DD0001B681A687B681B6801210A431A607B68BC
:102DE0004122202199547B684022002199540023DC
:102DF00000E002231800BD4604B080BDFFF0FFFFD5
:102E000080B588B000AF78607B68002B01D10123CA
:102E100001E37B681B680122134000D18DE0C34BA6
:102E20005B680C221340042B0ED0C04B5B680C2255
:102E30001340082B16D1BD4B5A6880235B021A4001
:102E400080235B029A420DD1B84B1A6880239B0203
:102E5000134000D170E07B685B68002B00D06BE012
:102E60000123D8E27B685B68012B07D1AF4B1A685E
:102E7000AE4B802149020A431A602FE07B685B68F1
:102E8000002B0CD1A94B1A68A84BA9490A401A601B
:102E9000A64B1A68A54BA7490A401A601EE07B683A
:102EA0005B68052B0ED1A14B1A68A04B8021C9028B
:102EB0000A431A609D4B1A689C4B802149020A43C1
:102EC0001A600BE0994B1A68984B99490A401A60AE
:102ED000964B1A68954B97490A401A607B685B6865
:102EE000002B14D0FEF718FF0300BB6108E0FEF7CB
:102EF00013FF0200BB69D31A642B01D903238AE2B2
:102F00008A4B1A6880239B021340F0D015E0FEF72D
:102F100003FF0300BB6108E0FEF7FEFE0200BB6991
:102F2000D31A642B01D9032375E2804B1A688023DE
:102F30009B021340F0D100E0C0467B681B68022270
:102F4000134000D169E0794B5B680C2213400BD031
:102F5000764B5B680C221340082B1CD1734B5A68CC
:102F600080235B02134016D1704B1B680222134072
:102F700005D07B68DB68012B01D001234BE26B4B52
:102F80001B68F822934319007B681B69DA00674BC2
:102F90000A431A6041E07B68DB68002B24D0634B56
:102FA0001A68624B01210A431A60FEF7B5FE03005E
:102FB000BB6108E0FEF7B0FE0200BB69D31A022B2A
:102FC00001D9032327E2594B1B6802221340F1D099
:102FD000564B1B68F822934319007B681B69DA0083
:102FE000524B0A431A6018E0504B1A684F4B0121AC
:102FF0008A431A60FEF790FE0300BB6108E0FEF70B
:103000008BFE0200BB69D31A022B01D9032302E213
:10301000464B1B6802221340F1D17B681B680822D3
:10302000134036D07B68DB69002B19D03F4B5A6ABE
:103030003E4B01210A435A62FEF76EFE0300BB615C
:1030400008E0FEF769FE0200BB69D31A022B01D922
:103050000323E0E1354B5B6A02221340F1D018E014
:10306000324B5A6A314B01218A435A62FEF754FEB1
:103070000300BB6108E0FEF74FFE0200BB69D31AF4
:10308000022B01D90323C6E1284B5B6A02221340BD
:10309000F1D17B681B680422134000D1B4E01F20EB
:1030A0003B1800221A70214BDA6980235B0513401C
:1030B00010D11E4BDA691D4B802149050A43DA61A4
:1030C0001A4BDA6980235B051340FB60FB683B18F1
:1030D00001221A70184B1A6880235B0013401AD122
:1030E000154B1A68144B802149000A431A60FEF7F9
:1030F00013FE0300BB6108E0FEF70EFE0200BB6991
:10310000D31A642B01D9032385E10B4B1A68802362
:103110005B001340F0D07B689B68012B0ED1034B02
:103120001A6A024B01210A431A6235E0001002407C
:10313000FFFFFEFFFFFFFBFF007000407B689B6806
:10314000002B0CD1B64B1A6AB54B01218A431A6287
:10315000B34B1A6AB24B04218A431A621CE07B68A3
:103160009B68052B0CD1AE4B1A6AAD4B04210A4368
:103170001A62AB4B1A6AAA4B01210A431A620BE08E
:10318000A74B1A6AA64B01218A431A62A44B1A6AFA
:10319000A34B04218A431A627B689B68002B14D0DE
:1031A000FEF7BAFD0300BB6109E0FEF7B5FD0200C2
:1031B000BB69D31A9B4A934201D903232BE1984B55
:1031C0001B6A02221340F0D013E0FEF7A5FD0300B6
:1031D000BB6109E0FEF7A0FD0200BB69D31A914A6A
:1031E000934201D9032316E18D4B1B6A022213403F
:1031F000F0D11F23FB181B78012B05D1884BDA690E
:10320000874B89490A40DA617B681B6810221340AA
:1032100063D07B685B69012B2AD1814B5A6B804B51
:1032200004210A435A637E4B5A6B7D4B01210A43AA
:103230005A63FEF771FD0300BB6108E0FEF76CFD09
:103240000200BB69D31A022B01D90323E3E0744BBC
:103250005B6B02221340F1D0714B5B6BF8229343FE
:1032600019007B689B69DA006D4B0A435A6334E0AE
:103270007B685B69053311D1694B5A6B684B04213C
:103280008A435A63664B5B6BF822934319007B6851
:103290009B69DA00624B0A435A631EE0604B5A6B2B
:1032A0005F4B04210A435A635D4B5A6B5C4B01210F
:1032B0008A435A63FEF730FD0300BB6108E0FEF766
:1032C0002BFD0200BB69D31A022B01D90323A2E014
:1032D000534B5B6B02221340F1D17B681B6A002BBE
:1032E00000D197E04E4B5B680C221340082B00D1B5
:1032F0006BE07B681B6A022B4CD1494B1A68484B28
:103300004A490A401A60FEF707FD0300BB6108E066
:10331000FEF702FD0200BB69D31A022B01D9032379
:1033200079E03F4B1A6880239B041340F0D13C4B5B
:10333000DB6A0F22934319007B68DA6A384B0A4331
:10334000DA62374B5B683A4A134019007B689A6A25
:103350007B685B6A1A43324B0A435A60304B1A68E7
:103360002F4B802149040A431A60FEF7D5FC030065
:10337000BB6108E0FEF7D0FC0200BB69D31A022B48
:1033800001D9032347E0264B1A6880239B0413408E
:10339000F0D03FE0224B1A68214B24490A401A60C2
:1033A000FEF7BAFC0300BB6108E0FEF7B5FC0200C3
:1033B000BB69D31A022B01D903232CE0184B1A68DE
:1033C00080239B041340F0D124E07B681B6A012B0F
:1033D00001D101231FE0124B5B687B61104BDB6A5C
:1033E0003B617A6980235B021A407B685B6A9A4280
:1033F0000ED13B690F221A407B68DB6A9A4207D1E3
:103400007A69F0239B031A407B689B6A9A4201D039
:10341000012300E000231800BD4608B080BDC0466F
:103420000010024088130000FFFFFFEFFFFFFFFEC8
:10343000FFFFC2FF80B584B000AF786039607B6861
:10344000002B01D10123B3E05B4B1B680122134029
:103450003A689A4211D9584B1B68012293431900CC
:10346000554B3A680A431A60534B1B6801221340BC
:103470003A689A4201D001239AE07B681B680222D5
:10348000134015D07B681B680422134006D04B4BB9
:103490005A684A4BE021C9000A435A60474B5B68AF
:1034A000F022934319007B689A68444B0A435A60A0
:1034B0007B681B680122134040D07B685B68012B4E
:1034C00007D13E4B1A6880239B02134014D101237D
:1034D0006EE07B685B68022B07D1384B1A6880234B
:1034E0009B04134008D1012362E0344B1B68022285
:1034F000134001D101235BE0304B5B68032293430F
:1035000019007B685A682D4B0A435A60FEF704FC89
:103510000300FB6009E0FEF7FFFB0200FB68D31A23
:10352000274A934201D9032342E0244B5B680C22D3
:103530001A407B685B689B009A42ECD11E4B1B686B
:10354000012213403A689A4211D21B4B1B68012298
:1035500093431900184B3A680A431A60164B1B68CC
:10356000012213403A689A4201D0012320E07B688F
:103570001B680422134009D0104B5B68114A1340AA
:1035800019007B68DA680D4B0A435A6000F020F896
:1035900001000A4B5B681B090F2213400A4AD35CE7
:1035A0000A00DA40094B1A600320FEF76FFB002384
:1035B0001800BD4604B080BD00200240001002404B
:1035C00088130000FFF8FFFF5447000804000020A4
:1035D00090B58FB000AF1423FB182B4A13CA13C346
:1035E00012681A603B1D294A13CA13C312681A6075
:1035F0000023FB620023BB6200237B6300237B620A
:1036000000233B63224B5B68FB62FB6A0C22134086
:10361000042B02D0082B03D02DE01E4B3B632DE082
:10362000FB6A9B0C0F2213401422BA18D35C7B62F6
:10363000174BDB6A0F2213403A1DD35CBB62FA6A58
:1036400080235B02134009D0B96A1248FCF75CFD85
:1036500003001A007B6A53437B6309E0796A0A001E
:103660005201521A93019B1ADB005B181B027B6309
:103670007B6B3B6302E0074B3B63C0463B6B180030
:10368000BD460FB090BDC046B4460008C446000811
:103690000010024000127A0080B586B000AF78605A
:1036A00000233B610023FB607B681A6880235B0278
:1036B000134000D18EE017203B1800221A70574BA0
:1036C000DA6980235B05134010D1544BDA69534B00
:1036D000802149050A43DA61504BDA6980235B0592
:1036E0001340BB60BB683B1801221A704C4B1A6830
:1036F00080235B0013401AD1494B1A68484B802144
:1037000049000A431A60FEF707FB03003B6108E02B
:10371000FEF702FB02003B69D31A642B01D9032395
:1037200077E03F4B1A6880235B001340F0D03B4B9F
:103730001A6AC0239B001340FB60FB68002B34D047
:103740007B685A68C0239B001340FA689A422CD0C9
:10375000324B1B6A334A1340FB60304B1A6A2F4BC3
:10376000802149020A431A622C4B1A6A2B4B2E49BC
:103770000A401A62294BFA681A62FB680122134058
:1037800013D0FEF7C9FA03003B6109E0FEF7C4FA63
:1037900002003B69D31A254A934201D9032338E03A
:1037A0001E4B1B6A02221340F0D01C4B1B6A1D4AA1
:1037B000134019007B685A68184B0A431A62172392
:1037C000FB181B78012B05D1144BDA69134B1849F0
:1037D0000A40DA617B681B680122134009D00F4B55
:1037E0001B6B0322934319007B689A680B4B0A43B7
:1037F0001A637B681B682022134009D0074B1B6BA0
:103800001022934319007B68DA68044B0A431A6359
:1038100000231800BD4606B080BDC046001002401F
:1038200000700040FFFCFFFFFFFFFEFF8813000059
:10383000FFFFFFEF80B584B000AF78607B68002B9E
:1038400001D10123A8E07B685B6A002B09D17B686A
:103850005A6882235B009A4209D07B680022DA61B1
:1038600005E07B6800221A617B6800225A617B6850
:1038700000229A627B685D229B5CDBB2002B07D141
:103880007B685C22002199547B681800FEF72CF9B4
:103890007B685D22022199547B681B681A687B68EB
:1038A0001B6840218A431A607B68DA68E023DB00EA
:1038B0009A4202D90023FB6002E080235B01FB6097
:1038C0007B68DA68F0231B019A4208D07B68DA68CB
:1038D000E023DB009A4202D07B6800229A627B6878
:1038E0005A6882235B001A407B68996884231B0214
:1038F0000B401A437B681B6902210B401A437B680B
:103900005B6901210B401A437B68996980239B0006
:103910000B401A437B68DB6938210B401A437B68F4
:103920001B6A80210B401A4311007B689A6A80232E
:103930009B011A407B681B680A431A607B689B697D
:103940001B0C04221A407B685B6A10210B401A434F
:103950007B685B6B08210B401A437B68D968F023B6
:103960001B010B401A431100FA6880235B011A40C7
:103970007B681B680A435A607B681B68DA697B684E
:103980001B6807490A40DA617B6800221A667B6877
:103990005D220121995400231800BD4604B080BD6A
:1039A000FFF7FFFF80B588B000AFF860B9603B60FB
:1039B000BB1D1A801F23FB1800221A70FB685C22B3
:1039C0009B5C012B01D1022340E1FB685C220121B9
:1039D0009954FEF7A1F90300BB611623FB18BA1D29
:1039E00012881A80FB685D229B5CDBB2012B04D03D
:1039F0001F23FB1802221A701DE1BB68002B03D0A5
:103A0000BB1D1B88002B04D11F23FB1801221A7039
:103A100011E1FB685D2203219954FB6800221A66BC
:103A2000FB68BA689A63FB68BA1D12889A87FB68BC
:103A3000BA1D1288DA87FB6800221A64FB684422E8
:103A400000219952FB68462200219952FB6800220E
:103A50001A65FB680022DA64FB689A6880231B02FF
:103A60009A4210D1FB681B681A68FB681B684021EA
:103A70008A431A60FB681B681A68FB681B68802110
:103A8000C9010A431A60FB681B681B684022134087
:103A9000402B07D0FB681B681A68FB681B68402135
:103AA0000A431A60FB68DA68E023DB009A424ED9C9
:103AB000FB685B68002B04D01623FB181B88012BC6
:103AC0003FD1FB689B6B1A88FB681B68DA60FB6858
:103AD0009B6B9A1CFB689A63FB68DB8F9BB2013B74
:103AE0009AB2FB68DA872CE0FB681B689B680222AD
:103AF0001340022B12D1FB689B6B1A88FB681B6872
:103B0000DA60FB689B6B9A1CFB689A63FB68DB8F2F
:103B10009BB2013B9AB2FB68DA8712E0FEF7FCF831
:103B20000200BB69D31A3A689A4202D83B68013353
:103B300002D13B68002B04D11F23FB1803221A700B
:103B400079E0FB68DB8F9BB2002BCDD14FE0FB68A7
:103B50005B68002B04D01623FB181B88012B41D176
:103B6000FB689A6BFB681B680C3312781A70FB6851
:103B70009B6B5A1CFB689A63FB68DB8F9BB2013B13
:103B80009AB2FB68DA872DE0FB681B689B6802220B
:103B90001340022B13D1FB689A6BFB681B680C3334
:103BA00012781A70FB689B6B5A1CFB689A63FB685F
:103BB000DB8F9BB2013B9AB2FB68DA8712E0FEF71B
:103BC000ABF80200BB69D31A3A689A4202D83B6844
:103BD000013302D13B68002B04D11F23FB180322C1
:103BE0001A7028E0FB68DB8F9BB2002BCCD1BA693E
:103BF0003968FB68180000F0D9FC031E02D0FB688E
:103C000020221A66FB689B68002B0AD100233B61C7
:103C1000FB681B68DB683B61FB681B689B683B615A
:103C20003B69FB681B6E002B04D01F23FB1801228D
:103C30001A7000E0C046FB685D2201219954FB68C0
:103C40005C22002199541F23FB181B781800BD46E5
:103C500008B080BD90B589B002AFF860B9603B6034
:103C6000BB1D1A801723FB1800221A70FB685A68C4
:103C700082235B009A4213D1FB689B68002B0FD113
:103C8000FB685D2204219954BB1D1C88BA68B96881
:103C9000F8683B680093230000F028F903001CE15A
:103CA000FB685C229B5C012B01D1022315E1FB68C0
:103CB0005C2201219954FEF72FF803003B61FB6859
:103CC0005D229B5CDBB2012B04D01723FB18022280
:103CD0001A70F7E0BB68002B03D0BB1D1B88002BBC
:103CE00004D11723FB1801221A70EBE0FB685D2258
:103CF00004219954FB6800221A66FB68BA681A64AA
:103D0000FB68BA1D442112885A52FB68BA1D46212D
:103D100012885A52FB6800229A63FB6800229A8735
:103D2000FB680022DA87FB680022DA64FB68002265
:103D30001A65FB68DA68E023DB009A4208D9FB6861
:103D40001B685A68FB681B6866490A405A6008E0AD
:103D5000FB681B685A68FB681B68802149010A439D
:103D60005A60FB689A6880231B029A420FD1FB6855
:103D70001B681A68FB681B6840218A431A60FB684D
:103D80001B681A68FB681B6857490A401A60FB6881
:103D90001B681B6840221340402B07D0FB681B6840
:103DA0001A68FB681B6840210A431A60FB68DA68DE
:103DB000E023DB009A4200D969E031E0FB681B6830
:103DC0009B6801221340012B17D1FB681B680C3341
:103DD0001A00FB681B6C1278D2B21A70FB681B6C5D
:103DE0005A1CFB681A64FB6846229B5A9BB2013B33
:103DF00099B2FB684622995212E0FDF78DFF02004E
:103E00003B69D31A3A689A4202D83B68013302D11F
:103E10003B68002B04D11723FB1803221A7051E0D2
:103E2000FB6846229B5A9BB2002BC7D135E0FB684A
:103E30001B689B6801221340012B15D1FB681B688E
:103E4000DA68FB681B6C92B21A80FB681B6C9A1CC8
:103E5000FB681A64FB6846229B5A9BB2013B99B2ED
:103E6000FB684622995212E0FDF756FF02003B69BB
:103E7000D31A3A689A4202D83B68013302D13B68B0
:103E8000002B04D11723FB1803221A701AE0FB68D9
:103E900046229B5A9BB2002BC9D13A693968FB680C
:103EA000180000F025FB031E02D0FB6820221A66D2
:103EB000FB681B6E002B04D01723FB1801221A701D
:103EC00000E0C046FB685D2201219954FB685C223A
:103ED000002199541723FB181B781800BD4607B022
:103EE00090BDC046FFEFFFFFFFBFFFFF80B58AB068
:103EF00000AFF860B9607A601A00BB1C1A80012319
:103F00007B622323FB1800221A70FB685C229B5CF7
:103F1000012B01D10223B5E1FB685C2201219954F8
:103F2000FDF7FAFE0300FB611B203B18FA685D21D8
:103F3000525C1A70FB685B687B611223FB18BA1C29
:103F400012881A803B181B78012B11D07A698223C2
:103F50005B009A4207D1FB689B68002B03D13B189A
:103F60001B78042B04D02323FB1802221A707EE155
:103F7000BB68002B06D07B68002B03D0BB1C1B88C2
:103F8000002B04D12323FB1801221A706FE1FB6878
:103F90005D229B5CDBB2042B03D0FB685D22052114
:103FA0009954FB6800221A66FB687A681A64FB68F9
:103FB000BA1C462112885A52FB68BA1C4421128846
:103FC0005A52FB68BA689A63FB68BA1C1288DA878F
:103FD000FB68BA1C12889A87FB680022DA64FB68C7
:103FE00000221A65FB68DA68E023DB009A4208D9F0
:103FF000FB681B685A68FB681B68A4490A405A6042
:1040000008E0FB681B685A68FB681B68802149014F
:104010000A435A60FB681B681B6840221340402B10
:1040200007D0FB681B681A68FB681B6840210A43BD
:104030001A60FB68DA68E023DB009A4200D87FE070
:10404000FB685B68002B05D01223FB181B88012B33
:1040500000D069E0FB689B6B1A88FB681B68DA601C
:10406000FB689B6B9A1CFB689A63FB68DB8F9BB2B7
:10407000013B9AB2FB68DA8756E0FB681B689B68D5
:1040800002221340022B1BD1FB68DB8F9BB2002B5B
:1040900016D07B6A012B13D1FB689B6B1A88FB68D7
:1040A0001B68DA60FB689B6B9A1CFB689A63FB6871
:1040B000DB8F9BB2013B9AB2FB68DA8700237B62FD
:1040C000FB681B689B6801221340012B1CD1FB6815
:1040D00046229B5A9BB2002B16D0FB681B68DA68FD
:1040E000FB681B6C92B21A80FB681B6C9A1CFB6805
:1040F0001A64FB6846229B5A9BB2013B99B2FB684B
:104100004622995201237B62FDF706FE0200FB69FD
:10411000D31A3A6B9A4207D83B6B013304D023235E
:10412000FB1803221A70A2E0FB68DB8F9BB2002B06
:10413000A3D1FB6846229B5A9BB2002B9DD185E000
:10414000FB685B68002B05D01223FB181B88012B32
:1041500000D070E0FB689A6BFB681B680C33127828
:104160001A70FB689B6B5A1CFB689A63FB68DB8FB9
:104170009BB2013B9AB2FB68DA875CE0FB681B6884
:104180009B6802221340022B1CD1FB68DB8F9BB281
:10419000002B17D07B6A012B14D1FB689A6BFB684C
:1041A0001B680C3312781A70FB689B6B5A1CFB68F7
:1041B0009A63FB68DB8F9BB2013B9AB2FB68DA879C
:1041C00000237B62FB681B689B6801221340012B64
:1041D0001ED1FB6846229B5A9BB2002B18D0FB686D
:1041E0001B680C331A00FB681B6C1278D2B21A7071
:1041F000FB681B6C5A1CFB681A64FB6846229B5ABE
:104200009BB2013B99B2FB684622995201237B6223
:10421000FDF782FD0200FB69D31A3A6B9A4202D87D
:104220003B6B013302D13B6B002B04D12323FB18E2
:1042300003221A701BE0FB68DB8F9BB2002B9DD121
:10424000FB6846229B5A9BB2002B97D1FA69396BC7
:10425000FB68180000F0AAF9031E07D02323FB18FF
:1042600001221A70FB6820221A6600E0C046FB6833
:104270005D2201219954FB685C220021995423237B
:10428000FB181B781800BD460AB080BDFFEFFFFF8A
:1042900080B588B000AFF860B9603B60FB1D1A7054
:1042A000FDF73AFD0200BB6A9B1A3A68D318FB611E
:1042B000FDF732FD0300BB613A4B1B685B011B0D30
:1042C000FA6953437B6158E03B68013355D0FDF7F1
:1042D00023FD0200BB69D31AFA699A4202D9FB692D
:1042E000002B42D1FB681B685A68FB681B68E02101
:1042F0008A435A60FB685A6882235B009A4213D152
:10430000FB689A6880231B029A4205D0FB689A6872
:104310008023DB009A4207D1FB681B681A68FB68A0
:104320001B6840218A431A60FB689A6A80239B01BC
:104330009A4210D1FB681B681A68FB681B681A490F
:104340000A401A60FB681B681A68FB681B688021BA
:1043500089010A431A60FB685D2201219954FB68B8
:104360005C2200219954032317E07B69002B01D1C3
:104370000023FB617B69013B7B61FB681B689B68D9
:10438000BA681340BA68D31A5A425341DBB21A00D2
:10439000FB1D1B789A4297D100231800BD4608B038
:1043A00080BDC04604000020FFDFFFFF80B58AB05B
:1043B00000AFF860B9607A603B601723FB180022F9
:1043C0001A70FDF7A9FC02003B6B9B1A3A68D318E0
:1043D0007B62FDF7A1FC03003B62FB681B680C33AA
:1043E000FB61414B1A6813009B009B18DA00D31A3B
:1043F0001B0D7A6A5343BB6168E0BA68C023DB00D7
:104400009A420AD17B68002B07D1FB691B78DAB28C
:1044100017217B181A707B181B783B68013355D025
:10442000FDF77AFC02003B6AD31A7A6A9A4202D9F3
:104430007B6A002B42D1FB681B685A68FB681B68CB
:10444000E0218A435A60FB685A6882235B009A42E3
:1044500013D1FB689A6880231B029A4205D0FB683F
:104460009A688023DB009A4207D1FB681B681A68B0
:10447000FB681B6840218A431A60FB689A6A8023A4
:104480009B019A4210D1FB681B681A68FB681B6885
:1044900016490A401A60FB681B681A68FB681B68AB
:1044A000802189010A431A60FB685D220121995429
:1044B000FB685C2200219954032310E0BB69002BA8
:1044C00001D100237B62BB69013BBB61FB681B68B8
:1044D0009B68BA6813407A689A428ED1002318000C
:1044E000BD460AB080BDC04604000020FFDFFFFFCC
:1044F00080B586B002AFF860B9607A60FB685A6830
:1045000082235B009A4213D1FB689A6880231B02C6
:104510009A4205D0FB689A688023DB009A4207D153
:10452000FB681B681A68FB681B6840218A431A6095
:10453000BA68F8687B680093130000228021FFF7B7
:10454000A7FE031E07D0FB681B6E20221A43FB68E0
:104550001A66032326E0FB685A6882235B009A42AE
:104560001FD1FB689A6880231B029A4205D0FB6822
:104570009A688023DB009A4213D1BA68C023D9001D
:10458000F8687B68009313000022FFF70FFF031EFB
:1045900007D0FB681B6E20221A43FB681A660323B0
:1045A00000E000231800BD4604B080BD80B586B091
:1045B00002AFF860B9607A60BA68C0235901F86840
:1045C0007B68009313000022FFF7F0FE031E07D064
:1045D000FB681B6E20221A43FB681A66032327E040
:1045E000BA68F8687B680093130000228021FFF707
:1045F0004FFE031E07D0FB681B6E20221A43FB6888
:104600001A66032314E0BA68C023D900F8687B68EF
:10461000009313000022FFF7C9FE031E07D0FB68BA
:104620001B6E20221A43FB681A66032300E0002356
:104630001800BD4604B080BD70B500260C4D0D4C71
:10464000641BA410A64209D1002600F021F80A4DEF
:104650000A4C641BA410A64205D170BDB300EB58F0
:1046600098470136EEE7B300EB5898470136F2E77A
:104670006C4700086C4700086C470008704700084A
:1046800003008218934200D1704719700133F9E793
:10469000F8B5C046F8BC08BC9E467047F8B5C046A1
:0846A000F8BC08BC9E467047FF
:1046A80050000000E2000000E100000002030405E1
:1046B800060708090A0B0C0D0E0F1010010203045F
:1046C80005060708090A0B0C0D0E0F10D404000884
:1046D80060040008BC03000874030008BC03000859
:1046E8009C040008BC030008740300086004000868
:1046F800600400089C040008740300087A0300089A
:104708007A0300087A030008AA0400086004000875
:1047180060040008BC03000870030008BC0300081C
:104728009C040008BC03000870030008600400082B
:10473800600400089C040008700300087A0300085D
:104748007A0300087A030008A604000800000000A5
:0C4758000000000001020304060708092D
:08476400A4BEFF7F010000006C
:04476C00E900000858
:04477000C10000087C
:10477400C1B3B40000127A0004000000010000007C
:0400000508001C11C2
:00000001FF
