:020000040800F2
:1000000000100020AD300008291400082B1400084F
:1000100000000000000000000000000000000000E0
:100020000000000000000000000000002D14000887
:1000300000000000000000002F1400083114000828
:10004000FD30000800000000FD300008FD30000811
:10005000FD30000839140008FD300008FD300008AC
:1000600000000000FD300008FD300008FD300008F1
:10007000FD300008FD300008FD30000800000000E1
:10008000FD3000080000000000000000FD30000806
:1000900000000000FD300008FD300008FD300008C1
:1000A00000000000FD30000800000000FD300008E6
:1000B0000000000000000000000000000000000040
:1000C00010B5064C2378002B07D1054B002B02D02E
:1000D000044800E000BF0123237010BD0C00002085
:1000E0000000000058310008044B10B5002B03D06D
:1000F0000349044800E000BF10BDC04600000000F6
:100100001000002058310008002243088B4274D3AD
:1001100003098B425FD3030A8B4244D3030B8B4208
:1001200028D3030C8B420DD3FF22090212BA030C11
:100130008B4202D31212090265D0030B8B4219D3F2
:1001400000E0090AC30B8B4201D3CB03C01A524112
:10015000830B8B4201D38B03C01A5241430B8B425A
:1001600001D34B03C01A5241030B8B4201D30B0343
:10017000C01A5241C30A8B4201D3CB02C01A52416A
:10018000830A8B4201D38B02C01A5241430A8B422D
:1001900001D34B02C01A5241030A8B4201D30B0216
:1001A000C01A5241CDD2C3098B4201D3CB01C01A30
:1001B000524183098B4201D38B01C01A524143093A
:1001C0008B4201D34B01C01A524103098B4201D328
:1001D0000B01C01A5241C3088B4201D3CB00C01A95
:1001E000524183088B4201D38B00C01A524143080D
:1001F0008B4201D34B00C01A5241411A00D2014632
:10020000524110467047FFE701B5002000F006F8A4
:1002100002BDC0460029F7D076E770477047C04658
:10022000002B15D1002A13D1002906DB01DC0028A0
:1002300006D00020C043410802E0802109060020CA
:1002400007B4024801A14018029003BDD1FFFFFF8F
:1002500003B4684601B5029800F034F8019B9E464D
:1002600002B00CBC7047C046F0B5CE46474680B5DC
:10027000070099463B0C9C4613041B0C1D000E0006
:1002800061460004140C000C45434B43604361433A
:10029000C0182C0C20188C46834203D980235B02A3
:1002A0009846C444494679437243030C63442D0481
:1002B0002D0CC918000440198918C0BCB946B046B5
:1002C000F0BDC046F8B5CE46474680B59146984643
:1002D00004000D0000F098F907000E0002000B006A
:1002E00048464146FFF7C0FF241A8D41089B38005D
:1002F00031001C605D60C0BCB946B046F8BDC04668
:10030000F0B54F464646D6464502C0B547000C1CE0
:100310006D0A3F0EC60F002F00D170E0FF2F00D1F5
:1003200075E0EB008025ED041D43002399469A46B5
:100330007F3F6002430A984663001B0EE40F002BC8
:100340004ED0FF2B46D04246D0008022D20402433A
:10035000904600227F3B3100FF1A4B466140C9B2F4
:1003600013430F2B00D9B5E06E489B00C3589F463E
:10037000002398462600454692465346022B00D15C
:1003800089E0032B00D19EE0012B18D03B007F3386
:10039000002B69DD6A0704D00F222A40042A00D00E
:1003A00004352A0103D5604B1D403B008033FE2BF2
:1003B00000DD70E0AD016D0AD8B202E00E00002051
:1003C0000025C0052843F6073043E0BCBA46B146D5
:1003D000A846F0BD4346002B3FD10222FF3F03E079
:1003E0004346002B2DD1012231004B466140C9B25A
:1003F00013430F2B34D84D489B00C3589F46002D04
:1004000013D104239946033B00279A4691E7002D18
:1004100005D108239946063BFF279A4689E70C2316
:100420009946093BFF279A4683E7280000F0CEF85B
:100430007627431F9D4000237F4299469A463F1AE4
:1004400077E7404600F0C2F84246431F9A407623C1
:100450005B4290461B1A00227DE7FF2303227AE7C6
:100460000E00FF200025ACE70120C01A1B28A6DCE7
:100470009E372A00BD40C2406B1E9D4115436B074D
:1004800004D00F232B40042B00D004356B0144D53E
:100490000120002595E7FF20002592E78025002612
:1004A000FF20ED038DE7002398468020C00305421E
:1004B00009D04346034206D1454605436D02260056
:1004C000FF206D0A7DE78020C00305436D02FF20F9
:1004D0006D0A76E742466B015001834219D21B2216
:1004E0000025013F01261C006D005B00002C01DB94
:1004F000984201D81B1A3543013A002AF3D15A1EFB
:1005000093411D433B007F330E00002B00DD41E78C
:10051000AAE71A2201251B1AE4E7AD0100206D0AA3
:100520004FE7C04670310008FFFFFFF7B031000809
:10053000F8B5002813D0C317C6185E40C40F3000AA
:1005400000F044F89E2305001B1A962B0FDC0828A8
:1005500001DD083DAE407602760AD8B202E0002402
:1005600000200026C0053043E4072043F8BD992B46
:100570000CDD05223100121AD1400A0001003000C2
:100580001B318840411E884102431600052D12DCB4
:1005900031000D4F3940720709D00F203040042838
:1005A00005D004314A0102D59F2339405B1B8901E4
:1005B0004E0AD8B2D6E76A1F96403100024F394042
:1005C0007207F4D0E9E7C046FFFFFFFB1C210123BF
:1005D0001B04984201D3000C10391B0A984201D326
:1005E000000A08391B09984201D30009043902A204
:1005F000105C40187047C04604030202010101016B
:100600000000000000000000F0B557464E46454689
:10061000DE46E0B50F0019000023060098461000E2
:1006200083B0002F07DA33003C0000275E42A74169
:1006300001235B429846002907DA4346DB430C005E
:100640009846030000215842A14134003D008246F3
:100650008946B9426AD867D04946504600F0BAF890
:1006600083463900300000F0B5F85B461B1A9C4603
:10067000203B9B466BD458465146814060460B0058
:10068000514681400A00BB4200D972E0BB4200D112
:1006900079E034003D005946A41A9D41002900DA52
:1006A00074E00021002001260090019159468E40FF
:1006B0000196614601268E406146009600295FD072
:1006C000D90756080E435F086146012200230CE05B
:1006D000AF4201D1A6420AD8A41BBD4124196D41E5
:1006E0000139A4185D41002906D0AF42F0D9013983
:1006F00024196D410029F8D1009801995B46001931
:100700006941002B4DDB2E002C00DE406346DC40AF
:100710005B46002B55DB34009C4023006446A6401A
:100720003200801A994103E0B04295D9002000219F
:100730004346002B04D003000C0000215842A14185
:1007400003B0F0BCBB46B246A946A046F0BD624627
:1007500048462023514690409B1AD94003000091FF
:10076000009960460B43514681400A00BB4200D8C5
:100770008CE70021002000900191614600299FD163
:1007800000980199D4E7B142F3D882E76146202668
:100790000127761A00200021F7400090019101976F
:1007A00087E7624620239B1A2A009A4026001300FE
:1007B0006246D6402C001E436346DC405B46002B5D
:1007C000A9DA62462023350094409B1ADD402300BD
:1007D0002B43A3E710B5002903D1FFF7F7FE203024
:1007E00002E00800FFF7F2FE10BDC04610B5012878
:1007F00000D010BD00F02EFBFBE772B6FEE700B59F
:1008000095B03022002108A802F09EFC10220021A1
:1008100004A802F099FC10220021684602F094FC22
:100820000123089309930133109380235B021193F2
:1008300080231B03129308A801F03AFA002817D16D
:1008400007230493053B0593002306930793012197
:1008500004A801F0A5FC00280CD120230093103B34
:100860000393684601F036FD002805D115B000BDA0
:10087000FFF7C3FFFFF7C1FFFFF7BFFF10B501F0A0
:10088000DFFDFFF7BCFF00F01DF800F081F800F07D
:10089000E3F800F0A1FD00F0F9FA0CE000F0B4FC80
:1008A0000400074B1C70220A5A70240C9C70002212
:1008B000DA7001321A7100F089FD0028F1D1EDE7FC
:1008C00028000020F0B5C64600B588B014220021EB
:1008D00003A802F039FC2B4B59698020C003014367
:1008E00059615A6902400092009A59698020800239
:1008F000014359615A6902400192019A5A69802163
:10090000C9020A435A615B690B400293029BC027EC
:100910007F019025ED0500223900280001F078FEC6
:100920000126039684239B0304930024059403A9C2
:10093000280001F0A7FD144B03930323984604936A
:10094000059403A9280001F09DFD3B230393434632
:100950000493059403A90D4801F094FD03970496B0
:100960000594069403A9280001F08CFD00220021C3
:10097000052001F061FE052001F08EFE08B080BC6C
:10098000B846F0BD001002401E8700000004004879
:1009900010B51448144B0360144B4360002383606C
:1009A0000122C260036143618361C361036200F09D
:1009B0001FFF00280CD100210A4801F023F900286C
:1009C00009D10021074801F049F9002806D110BDDE
:1009D000FFF713FFEFE7FFF710FFF2E7FFF70DFF59
:1009E000F5E7C0463000002000540040BB7C70009A
:1009F00010B588B004001422002103A802F0A4FB63
:100A00002268124B9A4201D008B010BD104C6269A6
:100A10008021C9020A43626163690B400193019B13
:100A2000C0230393AE3B04930F3B0693023B079313
:100A300003A9084801F026FDE269802189030A43E1
:100A4000E261E3690B400293029BDDE70054004042
:100A5000001002400004004810B51148114B03601B
:100A600082235B00436000238360E022D200C260E7
:100A700003614361802292008261E93AFF3AC261D8
:100A8000036243628362113AC262036308334363C1
:100A900001F0A4FF002800D110BDFFF7AEFEFBE778
:100AA000840000200030014010B588B004001422FA
:100AB000002103A802F048FB2268124B9A4201D0A1
:100AC00008B010BD104B9969802040010143996125
:100AD0009A6902400192019A5A69802189020A4367
:100AE0005A615B690B400293029BE0230393DE3B58
:100AF000049301330693902003A9C00501F0C2FCC2
:100B0000DEE7C046003001400010024010B586B05C
:100B10006B46D87317246C440023237080219020E7
:100B200000220901C00501F073FDFA239B00009328
:100B3000012322000F2169440F4802F0ADF86B46F3
:100B4000DB7B072B0BD18021902001220901C005FE
:100B500001F05EFD17236B44187806B010BD162116
:100B60006944FF230B70FA239B00009301232200AA
:100B7000014802F091F8E6E784000020F0B5CE4687
:100B8000474680B583B06B46DC1DD87106236B44A5
:100B900098461970C3B22022134323708026360171
:100BA0009025ED0500223100280001F031FDFA23E7
:100BB0009B0099460A4F01222100380001F090FF66
:100BC0004B4601224146380001F08AFF01223100E4
:100BD000280001F01DFD03B0C0BCB946B046F0BD11
:100BE0008400002010B582B001AC164B1B78237036
:100BF0008021902000220901C00501F009FDFA239F
:100C00009B0001222100104801F06AFF0F4B186879
:100C10000F49FFF779FA03000138002BFBD101A936
:100C200073330B7087339B000122074801F058FF94
:100C30008021902001220901C00501F0E9FC02B0E9
:100C400010BDC046F03100088400002008000020DC
:100C5000C0C62D00F0B5D646474680B583B088465D
:100C6000009207236B449A46187080273F01902614
:100C7000F60500223900300001F0CAFCFA25AD006B
:100C80000B4C2B0001225146200001F029FF6B463E
:100C90001A882B004146200002F02EF9012239006B
:100CA000300001F0B5FC03B0C0BCBA46B046F0BDA0
:100CB0008400002070B582B00E0014006B46DD1D6C
:100CC000D871C3B2202213432B70802190200022C0
:100CD0000901C00501F09CFCFA239B0001222900B8
:100CE0000D4801F0FDFE0D4B18680D49FFF70CFA99
:100CF00003000138002BFBD1FA33A2B29B00310074
:100D0000054801F0EDFE8021902001220901C00577
:100D100001F07EFC02B070BD8400002008000020BD
:100D2000C0C62D0010B582B001AC114B1B782370EA
:100D30008021902000220901C00501F069FCFA23FE
:100D40009B00012221000B4801F0CAFE0A4B1868E3
:100D50000A49FFF7D9F903000138002BFBD18021A4
:100D6000902001220901C00501F052FC02B010BD23
:100D7000F43100088400002008000020C0C62D00C7
:100D800010B582B001AC114B1B78237080219020EC
:100D900000220901C00501F03BFCFA239B0001225F
:100DA00021000B4801F09CFE0A4B18680A49FFF726
:100DB000ABF903000138002BFBD1802190200122E8
:100DC0000901C00501F024FC02B010BDF831000893
:100DD0008400002008000020C0C62D0010B50020AF
:100DE000FFF794FE03210143C9B20020FFF7C6FEBE
:100DF0008021902001224901C00501F009FC9624C0
:100E0000074B18680749FFF77FF944432300013C6B
:100E1000002BFBD1FFF786FFFFF7B2FF10BDC046E6
:100E200008000020C0C62D0010B50720FFF76EFE99
:100E30001720FFF76BFE052204496120FFF70AFF28
:100E400005220349A920FFF735FF10BDE800002067
:100E50002800002010B50720FFF758FE04004306C5
:100E600002D483060DD410BDFFF7DEFF402107201A
:100E7000FFF784FEA306F6D520210720FFF77EFEAC
:100E8000F1E720210720FFF779FEECE710B580217C
:100E9000902000224901C00501F0BAFB264C274BE7
:100EA00018682749FFF730F944432300013C002B21
:100EB000FBD10A210020FFF761FE1F4C1F4B186871
:100EC0001F49FFF721F944432300013C002BFBD1CC
:100ED00007210120FFF752FE06210220FFF74EFEF8
:100EE00001210320FFF74AFE5F210420FFF746FEA1
:100EF000FFF778FE06211D20FFF740FE07211C208A
:100F0000FFF73CFE70210720FFF738FE4621052041
:100F1000FFF734FE26210620FFF730FE094C03229E
:100F200021001020FFF7C6FE032221000B20FFF74F
:100F3000C1FEFFF753FF10BD88130000080000201A
:100F4000C0C62D000000002000B587B017236B44F9
:100F50001A700A0080214902029101210191009337
:100F600001230100044800F0A9FC002802D0034B33
:100F700003221A7007B000BD3000002014010020C9
:100F800000B587B017236B4400221A700A00802135
:100F900049020291012101910093012301000648B9
:100FA00000F05CFD002802D0044B02221A701723C7
:100FB0006B44187807B000BD3000002014010020F9
:100FC00000B585B080235B02029302230193009257
:100FD000013B0A000100054800F040FD002802D056
:100FE000034B02221A7005B000BDC046300000203D
:100FF0001401002000B585B080235B020293032317
:1010000001930092023B0A000100054800F026FD12
:10101000002802D0034B02221A7005B000BDC04662
:10102000300000201401002010B50A000100EC205F
:10103000FFF78AFF10BD10B50100EC20FFF7A0FFFD
:1010400010BD10B50A000100EC20FFF7B9FF10BD7C
:1010500010B50A000100EC20FFF7B2FF10BD10B57B
:101060000C000A000100EC20FFF7C4FF2068020C0E
:10107000FF231340FF221202024013430004FF2209
:10108000120410400343236010BD10B5F320FFF796
:10109000D2FF0923184010BD10B51D4C2100882037
:1010A000FFF7CFFFA11C8A20FFF7D2FF211D8C2064
:1010B000FFF7CEFFA11D8E20FFF7C3FF21000831EF
:1010C0009020FFF7C5FF21000A319220FFF7C0FFF3
:1010D00021000C319420FFF7BBFF21000E31962038
:1010E000FFF7B6FF210010319820FFF7B1FF210074
:1010F00012319A20FFF7ACFF210014319C20FFF73A
:10110000A7FF210016319E20FFF7A2FF10BDC046A9
:10111000F000002010B50400F520FFF78CFF1F2120
:1011200008401F239C4361B20143C9B2F520FFF779
:101130007BFF10BD10B50400F520FFF77CFF1C23DA
:101140009843C0B21C2121400143F520FFF76CFFFA
:1011500010BD10B50400F420FFF76DFF1F210840FB
:101160001F239C4361B20143C9B2F420FFF75CFF27
:1011700010BD10B50400F420FFF75DFF1C23984359
:10118000C0B21C2121400143F420FFF74DFF10BDE8
:1011900010B50400F420FFF74EFF03239843C0B2BC
:1011A000032121400143F420FFF73EFF10BD000062
:1011B00030B583B001A9FA20FFF751FF019BD81188
:1011C0000E4A14886100411A0225505F4843C0123C
:1011D0001B121B1B5B431B130421525E53439B13C7
:1011E000C318074A13609800C01880300012FFF738
:1011F0009FF90449FFF784F803B030BDF0000020E8
:10120000180100200000C842F0B5DE4657464E46A1
:101210004546E0B585B0FFF7CBFF03A9F720FFF700
:101220001EFF039B1B0998460393624B1B681C001F
:10123000DD17614A01235B42A4185D4122002B00A7
:1012400020002900FFF710F883468A465B4B994639
:1012500010229A5ED317FFF707F806000F004B46DF
:101260000E20185EC11722002B00FEF7FDFFC30BF6
:101270009C464B0461460B43420492197B4149460C
:101280000C20095E0026CF00B6185F41009601973A
:101290004B460A229A5ED31758465146FEF7E4FFA2
:1012A0000B06060A1E430F124B460820185EC11794
:1012B00022002B00FEF7D8FF040D0B03234302038B
:1012C00092197B41002080210902801859414B4628
:1012D000DA880023FEF7C8FF4D10CC172B002343FC
:1012E00066D080235B0342469B1A5908D807009EAC
:1012F000019F801BB941324A0023FEF7B5FF2A0047
:101300002300FEF78DFF04000D004B461620185EEB
:10131000C117EB04660B1E436F1332003B00FEF750
:10132000A3FF02000B0030003900FEF79DFFCB0148
:10133000460E1E434F164B461420185EC11722005E
:101340002B00FEF791FF4B03C20C1A43CB14A419D8
:101350007D41A4185D412906220A0A432B12494601
:1013600012240C5FE617250F310129432001801854
:1013700059410B06020A1A4353019B1A9C00A418F8
:10138000E400FF2210400F4A00230021FEF76CFF0B
:101390000D4A0023FEF744FF2018FA218900FEF7CA
:1013A000B3FE05B0F0BCBB46B246A946A046F0BDB0
:1013B0000020F6E718010020000CFEFFF0000020DE
:1013C000350C0000E1F50500A0860100014B1878FE
:1013D0007047C0461401002010B5D020FFF72BFE47
:1013E000602805D0582803D00E4B01221A7018E04F
:1013F000B621E020FFF718FEFFF747FEC307FBD436
:10140000FFF74AFEA020FFF785FE0820FFF792FEB7
:101410006020FFF79EFE0820FFF7ABFE0320FFF7DA
:10142000B7FE10BD14010020FEE7FEE770477047CD
:1014300010B501F015F810BD10B5012001F0EEF85F
:1014400010BD000082B00A4B9969012211439961D5
:1014500099690A400092009ADA69802149050A4395
:10146000DA61DB690B400193019B02B07047C04613
:101470000010024003689A69920701D500229A621F
:1014800003689A69D20703D49A6901210A439A61D1
:101490007047000010B58905890D120411431943E6
:1014A000029B194349004908046862685B0D80206B
:1014B000C0000340024803439A431143616010BDDA
:1014C000FF63FF03F0B5C64600B504000D0017002A
:1014D00001688B69102216001E401A4200D175E087
:1014E0001023CB6100239846002623689869820662
:1014F00031D4002E2FD16B1CF7D000F0BDFFC01BE4
:10150000A84201D8002DF0D121684B688022D20179
:1015100013404222A25CD2B28869000403D5002B9A
:1015200001D1202A0ED123689B699B06DDD400F0EF
:10153000A3FFC01B1928F6D9202342461A43904620
:101540000126D2E74A688023DB0113434B6000F099
:1015500093FF0700E7E7002E01D12022DA6104267D
:10156000434633431E00012522689369D90504D5FB
:1015700001210E43FF31D16101255A0506D508220C
:10158000164322688021C900D16101259B051FD522
:1015900002231E43236880229200DA610125200085
:1015A000FFF768FF226853680B490B405360636C78
:1015B0001E43666441232022E25400232232A354B6
:1015C000023AA354280080BCB846F0BD0025CBE702
:1015D000002DF7D0E3E7C04600E800FE70B5040038
:1015E0000D00160023689B699B0720D43200290058
:1015F0002000FFF767FF00281BD16B1CF2D000F022
:101600003BFF801BA84201D8002DEBD123689B69CA
:101610009B07E7D4636C2022134363644123E254A5
:1016200000232232A354023AA354012000E00020F8
:1016300070BD0120FCE7F0B5CE4600B582B00700D2
:101640000D00160099463B689C692C40641B634260
:101650005C410196B44221D14B460133F3D000F0F6
:101660000BFF089BC01A484502D84B46002BEAD115
:101670003B689B692B405B1B5A425341019A934242
:10168000E1D17B6C202213437B644123FA54002375
:101690002232BB54023ABB54012000E0002002B0C9
:1016A00080BCB946F0BD000070B582B004001500E2
:1016B0001E008023F2B2194800905B042000FFF75F
:1016C000E9FE079A06992000FFF788FF00281ED13F
:1016D000012E0ED12368EDB29D62079B0093069BFD
:1016E000002280212000FFF7A6FF002813D102B0BE
:1016F00070BD23682A0A9A62079A06992000FFF7AC
:101700006DFF002805D12368EDB29D62E5E7012059
:10171000EDE70120EBE70120E9E7C046002000806B
:1017200070B582B0040015001E00DAB2184B0093A9
:101730000023FFF7AFFE079A06992000FFF74EFF40
:1017400000281ED1012E0ED12368EDB29D62079BA9
:101750000093069B002240212000FFF76CFF002829
:1017600013D102B070BD23682A0A9A62079A0699BB
:101770002000FFF733FF002805D12368EDB29D62FA
:10178000E5E70120EDE70120EBE70120E9E7C046AE
:101790000020008070B504000D00160003E02368EF
:1017A0009B699B0612D523689B699B061BD432005C
:1017B00029002000FFF786FE002816D100F05CFE0D
:1017C000801BA842EBD8002DEDD1E8E7636C202206
:1017D000134363644123E25400232232A354023AA8
:1017E000A354012000E0002070BD0120FCE70000B0
:1017F00010B5041E59D04123C35C002B43D04123B4
:101800002422E2542268136801218B43136022686A
:10181000274B61680B4013612268936825490B4090
:101820009360E368012B34D0226884231B02A168F3
:101830000B439360E368022B32D0226851681E4B41
:101840000B4353602268D3681A490B40D360236965
:1018500062691343A269120221681343CB602268B4
:10186000E369216A0B4313602268136801210B436B
:1018700013600023636441221F31A15423630132AA
:10188000A354002010BD40330022C254FFF7B0F82B
:10189000B5E7226880231B02A1680B439360C9E768
:1018A0002368802212015A60C7E70120EAE7C04698
:1018B000FFFFFFF0FF7FFFFF00800002F0B587B061
:1018C00004000391049205930CAB20CB1F884123A5
:1018D000C35C202B00D0B3E0002D18D0002F16D011
:1018E0004023C35C012B00D1ADE040230122C25450
:1018F00000F0C2FD06008021009019230122090298
:101900002000FFF798FE002806D0012099E08023F0
:101910009B006364012094E041232122E2540133BF
:101920001F32E25400236364656267856363019636
:101930000E9B0093059B049A03992000FFF7B4FEC9
:1019400000280FD1638D9BB2FF2B10D9FF23238575
:101950007F3B002200925B04FF3203992000FFF7D7
:1019600099FD21E040230022E254012069E0628DCC
:1019700092B222858023D2B2002100919B04039968
:101980002000FFF787FD0FE0628D92B22285802351
:10199000D2B2002100919B0403992000FFF77AFD49
:1019A000638D9BB2002B34D032000E992000FFF7DC
:1019B00015FE002849D12368626A12789A62636A28
:1019C00001336362638D013B9BB26385238D013BD1
:1019D0009BB22385628D92B2002AE1D0002BDFD129
:1019E00000960E9B002280212000FFF724FE002895
:1019F0002DD1638D9BB2FF2BC6D9FF2323857F3B5F
:101A0000002200925B04FF3203992000FFF742FDA1
:101A1000C6E732000E992000FFF7BCFE002818D15F
:101A200023682022DA6121684B680B4D2B404B6004
:101A30004123E25400232232A354023AA35400E08B
:101A4000022007B0F0BD0220FBE70120F9E70120EA
:101A5000F7E70120F5E7C04600E800FEF0B587B0E3
:101A600004000391049205930CAB20CB1F88412303
:101A7000C35C202B00D0B5E0002D18D0002F16D06D
:101A80004023C35C012B00D1AFE040230122C254AC
:101A900000F0F2FC060080210090192301220902C7
:101AA0002000FFF7C8FD002806D001209BE080231E
:101AB0009B006364012096E041232222E25401331B
:101AC0001E32E25400236364656267856363019696
:101AD0000E9B0093059B049A03992000FFF720FEBC
:101AE00000280FD1638D9BB2FF2B10D9FF232385D4
:101AF0007F3B424A00925B04FF2203992000FFF7DC
:101B0000C9FC21E040230022E25401206BE0628DF9
:101B100092B222858023D2B2384900919B04039966
:101B20002000FFF7B7FC0FE0628D92B22285802380
:101B3000D2B2002100919B0403992000FFF7AAFC78
:101B4000638D9BB2002B36D000960E9B00220421A1
:101B50002000FFF770FD002849D123685B6A626AA4
:101B60001370636A01336362238D013B9BB223854B
:101B7000628D013A92B26285628D92B2002ADFD004
:101B8000002BDDD100960E9B002280212000FFF764
:101B900052FD00282DD1638D9BB2FF2BC4D9FF23AA
:101BA00023857F3B002200925B04FF3203992000D3
:101BB000FFF770FCC4E732000E992000FFF7EAFD42
:101BC000002818D123682022DA6121684B680C4D67
:101BD0002B404B604123E25400232232A354023AAB
:101BE000A35400E0022007B0F0BD0220FBE7012073
:101BF000F9E70120F7E70120F5E7C046002400805F
:101C000000E800FEF0B54123C35C202B20D1203337
:101C1000C35C012B1ED04024012202554125242300
:101C200043550668336893433360066833680A4F48
:101C30003B403360066833681943316001680B68C4
:101C400013430B6020234355002303550020F0BDB0
:101C50000220FCE70220FAE7FFEFFFFFF0B5412387
:101C6000C35C202B1ED12033C35C012B1CD040242D
:101C700001220255412524234355066833689343C6
:101C8000336006683368094F3B40090219433160ED
:101C900001680B6813430B60202343550023035551
:101CA0000020F0BD0220FCE70220FAE7FFF0FFFF72
:101CB00070B582B0041E00D12EE20368DB0726D582
:101CC000AE4B5A680C231340042B18D0AB4B5A6808
:101CD0000C231340082B0ED06368012B3CD0002B43
:101CE00051D1A64B1A68A6490A401A601A68A5493C
:101CF0000A401A6036E0A14B5B68DB03ECD59F4BD2
:101D00001B689B0303D56368002B00D107E223689F
:101D10009B0772D5994B5B680C221A425DD0974B9A
:101D20005A680C231340082B53D0E368002B00D1D2
:101D300085E0924A136801210B43136000F09CFB7D
:101D400005008E4B1B689B0770D400F095FB401B71
:101D50000228F6D90320E0E1884A116880235B025B
:101D60000B4313606368002B25D000F085FB050052
:101D7000824B1B689B03CAD400F07EFB401B642887
:101D8000F6D90320C9E1052B09D07C4B1A687C49A0
:101D90000A401A601A687B490A401A60E2E7774BEA
:101DA00019688022D2020A431A60196880225202FE
:101DB0000A431A60D6E700F05FFB05006F4B1B6813
:101DC0009B03A4D500F058FB401B6428F6D90320E0
:101DD000A3E16A4B5B68DB03A7D4684B1B689B07D6
:101DE00003D5E368012B00D09BE164490B68F8221E
:101DF00093432269D20013430B6023681B0744D529
:101E0000E369002B2ED05D4A536A01210B435362D4
:101E100000F032FB0500594B5B6A9B0735D400F09C
:101E20002BFB401B0228F6D9032076E153490B68AF
:101E3000F82293432269D20013430B60DDE74F4A37
:101E4000136801218B43136000F016FB05004B4B18
:101E50001B689B07D1D500F00FFB401B0228F6D969
:101E600003205AE1454A536A01218B43536200F033
:101E700003FB0500414B5B6A9B0706D500F0FCFAAB
:101E8000401B0228F6D9032047E123685B0700D4F2
:101E900080E03A4BDB69DB001DD4384AD1698020F1
:101EA00040050143D161D36903400193019B0125A2
:101EB000354B1B68DB0510D5A368012B21D0002B07
:101EC00036D12E4B1A6A01218A431A621A6A0331EB
:101ED0008A431A621AE00025EAE72B4A1168802338
:101EE0005B000B43136000F0C7FA0600264B1B682B
:101EF000DB05E1D400F0C0FA801B6428F6D903208A
:101F00000BE11E4A136A01210B431362A368002BE5
:101F100024D000F0B1FA0600184B1B6A9B0737D497
:101F200000F0AAFA801B194B9842F5D90320F4E07F
:101F3000052B09D0114B1A6A01218A431A621A6AC9
:101F400003318A431A62E1E70C4B1A6A04210A43FF
:101F50001A621A6A03390A431A62D7E700F08CFA48
:101F60000600064B1B6A9B0712D500F085FA801B02
:101F7000064B9842F5D90320CFE0C046001002403E
:101F8000FFFFFEFFFFFFFBFF007000408813000013
:101F9000012D33D02368DB0610D56369012B33D0C4
:101FA000053351D1654A536B04218B435363536B03
:101FB000F4318B43A169C9000B435363236A002B9F
:101FC00000D1B0E05D4A51680C220A40082A00D1D5
:101FD0008AE0022B4FD0594A136859490B401360CD
:101FE00000F04AFA0400554B1B689B017AD500F0BB
:101FF00043FA001B0228F6D903208EE04F4AD3692A
:1020000050490B40D361C5E74C4B5A6B04210A433E
:102010005A635A6B03390A435A6300F02DFA0500DC
:10202000464B5B6B9B0706D400F026FA401B022848
:10203000F6D9032071E041494B6BF8229343A26922
:10204000D20013434B63B9E73C4B5A6B04210A435C
:102050005A635A6B03398A435A6300F00DFA05003C
:10206000364B5B6B9B07A9D500F006FA401B022894
:10207000F6D9032051E0314A136831490B4013600F
:1020800000F0FAF905002D4B1B689B0106D500F006
:10209000F3F9401B0228F6D903203EE0274BDA6A09
:1020A0000F218A43E16A0A43DA625A6826490A40E4
:1020B000A16A606A01430A435A6019688022520487
:1020C0000A431A6000F0D8F904001C4B1B689B01FE
:1020D00006D400F0D1F9001B0228F6D903201CE039
:1020E00000201AE0002018E0012B1ED0134B5A6884
:1020F000D96A80235B021340606A834217D10F23A1
:102100000B40E16A8B4214D1F0239B031A40A36A6F
:102110009A4210D1002000E0012002B070BD0120E1
:10212000FBE70120F9E70020F7E70120F5E70120B0
:10213000F3E70120F1E70120EFE7C046001002407D
:10214000FFFFFFFEFFFFFFEFFFFFC2FF10B5104BC9
:102150005A680C231340082B01D00E4810BD910C77
:10216000073319400C48445C0949C96A0B400B49C4
:10217000C95CD30304D50748FDF7C6FF6043EDE70C
:1021800063011B1B9801C01AC00000190002E5E79B
:102190000010024000127A00FC3100080C320008E6
:1021A00070B504000D00002800D17EE0434B1A6892
:1021B000012313408B420AD240490B68012293430A
:1021C0002B430B600B681A40AA4200D06FE02368D3
:1021D0009A070ED55B0705D5394A5168E023DB0025
:1021E0000B435360364A5368F0218B43A1680B437D
:1021F00053602368DB072DD56368012B1ED0022BAB
:1022000022D02F4A1268920753D52D494A680320DD
:10221000824313434B6000F02FF90600284B5B68A4
:102220000C221A4063689B009A4213D000F024F9F4
:10223000801B244B9842F1D9032035E0204A1268D4
:102240009203E2D401202FE01D4A12689201DCD4EF
:10225000012029E0194B1A6801231340AB4209D928
:1022600016490B68012293432B430B600B681A40FD
:10227000AA4220D123685B0706D5114A5368124948
:102280000B40E1680B435360FFF760FF0C4B5A684B
:1022900012090F2313400D4AD35CD8400C4B186031
:1022A000032000F0A5F8002070BD0120FCE701200C
:1022B000FAE70120F8E70120F6E7C04600200240D7
:1022C0000010024088130000FFF8FFFF1C320008D6
:1022D0000800002070B582B004000368DB0337D526
:1022E0003D4BDB69DB0049D43B4AD1698020400586
:1022F0000143D161D36903400193019B0125374B11
:102300001B68DB053CD5344B1A6AC0239B001100C7
:1023100019401A4213D0626813408B420FD02E4BE3
:10232000186A2F4A02401E6A80214902314319620D
:10233000196A2C4E314019621A62C30734D4264AF6
:10234000136A27490B4061680B431362012D3AD091
:102350002368DB0706D5204A136B03218B43A16852
:102360000B43136323689B0632D51B4A136B102162
:102370008B43E1680B43136300202AE00025BEE78E
:10238000164A116880235B000B43136000F074F859
:102390000600124B1B68DB05B5D400F06DF8801BFE
:1023A0006428F6D9032014E000F066F806000A4B12
:1023B0001B6A9B07C3D400F05FF8801B0A4B98424E
:1023C000F5D9032005E0D36908490B40D361BFE785
:1023D000002002B070BDC0460010024000700040F6
:1023E000FFFCFFFFFFFFFEFF88130000FFFFFFEF72
:1023F00010B504000F4B1978FA208000FDF784FE19
:1024000001000D4B1868FDF77FFE00F051F9002820
:102410000DD1032C01D901200AE001300022210056
:10242000404200F009F9054B1C60002000E001204B
:1024300010BDC0460300002008000020040000205A
:1024400010B5064A136810210B4313600320FFF7F1
:10245000CFFFFEF7F7FF002010BDC046002002406E
:10246000034A1168034B1B785B1813607047C04622
:102470001C01002003000020014B18687047C04673
:102480001C010020F0B583B0002357E084685F0092
:102490000326BE40B4432600CC68BC40344384606D
:1024A000446894434A681609012232409A40224304
:1024B000426053E0DC080834A400265805321A4074
:1024C00092000F279740BE430F6997403A0032436E
:1024D000225057E0032600E00026A64034003C438B
:1024E00002329200444E9451444A9468EA432600D2
:1024F000AE434F68FF0201D52C4326003F4CA66037
:10250000E468260016404F68BF0201D52C43260020
:102510003A4CE6606468260016404F68BF0301D558
:102520002C432600354C6660246822404E68F60332
:1025300001D52A002243314C226001330C6822006D
:10254000DA4057D001229A40250015401442F4D0B9
:1025500003244E683440013C012C97D903224C6877
:102560002240032A09D0C2685E000324B440A2437B
:1025700014008A68B2402243C26003224C682240A1
:10258000022A97D004685E0003221700B740BC43BC
:102590004F683A40B24022430260C02292024C6827
:1025A0001442CAD0164CA66901221643A661A4693A
:1025B00022400192019A9A08941CA4000E4EA75939
:1025C00003241C40A4000F26A640B7439026F6051E
:1025D000B04281D00B4EB04208D00B4EB04207D073
:1025E0000A4EB04200D175E7052676E7012674E76A
:1025F000022672E703B0F0BD000001400004014074
:10260000001002400004004800080048000C004888
:10261000002A01D0816170478162FCE710B5054B4B
:102620005B69184200D110BD024B5861FEF7DEF81D
:10263000F9E7C0460004014070B5002811DB8308AB
:10264000134EC0339B009D5903242040C000FF223D
:1026500014008440A54389010A4082402A439A51CC
:1026600070BD0F230340083B9B0806339B00094ABB
:10267000944663445C6803221040C000FC3215009D
:102680008540AC4389010A40824022435A60E7E713
:1026900000E100E000ED00E0002805DB1F2318400A
:1026A0001E3B8340014A13607047C04600E100E0D2
:1026B000013880235B0498420FD2094A50600948D0
:1026C000036A1B021B0AC02109060B430362002395
:1026D000936007331360002070470120FCE7C04679
:1026E00010E000E000ED00E0F0B5D6464F4646466B
:1026F000C0B582B006000D0090461F00FFF7BCFE7B
:102700000A9B181A8146B944FFF7B6FE82462E4B43
:102710001B685B011B0D4A465343019333689C6859
:102720002C40641B63425C41444545D07B1CF5D082
:10273000FFF7A2FE5346C01A48450BD24B46002B6A
:1027400008D0019A002A00D04A46019B013B019320
:102750009146E3E732685368E0218B43536082235C
:102760005B0072689A420CD080239B01B26A9A4245
:1027700016D05D230122F254013B0022F2540320C3
:102780001BE0B36880221202934203D08022D20061
:102790009342E9D13268136840218B431360E3E729
:1027A0003268136809490B4013603268116880234E
:1027B0009B010B431360DCE7002002B0E0BCBA468B
:1027C000B146A846F0BDC04608000020FFDFFFFF6D
:1027D000F0B5DE4657464E464546E0B583B00700A5
:1027E0000D00160098466B460022DA70FFF744FE93
:1027F0000C9B181A40448146FFF73EFE82463B6818
:102800009B46364B1A6893009A18D3009B1A1B0DEF
:102810004A465343019302E04346013311D13B68DA
:102820009C682C40B44250D0C023DB009D42F3D1C1
:10283000002EF1D15B461B7BDBB26A46D370D378A6
:10284000EAE7FFF719FE5346C01A48450BD24B463C
:10285000002B08D0019A002A00D04A46019B013B78
:1028600001939146DBE73A685368E0218B4353605C
:1028700082235B007A689A420CD080239B01BA6A5B
:102880009A4216D05D230122FA54013B0022FA54E9
:1028900003201BE0BB6880221202934203D08022F7
:1028A000D2009342E9D13A68136840218B43136008
:1028B000E3E73A6813680A490B4013603A68116805
:1028C00080239B010B431360DCE7002003B0F0BCC6
:1028D000BB46B246A946A046F0BDC046080000204F
:1028E000FFDFFFFF70B582B004000D001600C021AD
:1028F00000922B0000224901FFF76AFF002818D13F
:1029000000962B00002280212000FFF7EDFE00281A
:1029100016D1C02100962B000022C9002000FFF72D
:1029200057FF00280AD0236E20221343236603207A
:1029300004E0236E202213432366032002B070BDFF
:10294000236E2022134323660320F7E770B582B07D
:1029500004000D00160082235B0042689A420FD0EB
:1029600000962B00002280212000FFF7BDFE0028EA
:1029700015D182235B0062689A4216D002B070BD06
:10298000836880221202934203D08022D2009342B5
:10299000E6D12268136840218B431360E0E7236E81
:1029A0002022134323660320E8E7A3688022120253
:1029B000934203D08022D2009342DFD1C0210096FF
:1029C0002B000022C9002000FFF702FF0028D5D00D
:1029D000236E2022134323660320CFE770B5041E25
:1029E00000D178E0436A002B07D10533FF334268FA
:1029F0009A4205D00023C36102E0002303614361D2
:102A00000023A3625D33E35C002B5AD05D230222D6
:102A1000E2542268136840218B431360E368E0228C
:102A2000D200934254D90022F02109018B4205D0F3
:102A3000E021C9008B4201D00023A36282235B0006
:102A400061680B4084210902A06801400B43022108
:102A5000206901400B430121606908400343802045
:102A60008000A569284003433820E56928400343D6
:102A70008020256A2840034380208001A56A2840E1
:102A8000034320680360608B042303401020656AC1
:102A9000284003430820656B28400343F0200001D1
:102AA000E568284003432068134343602268D369E4
:102AB0000A480340D361002323665D33E1540020BC
:102AC00070BD5C330022E2542000FDF7EDFF9DE76E
:102AD00080225201A8E70120F2E7C046FFF7FFFF7E
:102AE000F0B5CE4600B584B00400019191461D00BA
:102AF0005C23C35C012B00D1CBE05C230122C254D8
:102B0000FFF7BAFC06005D23E35CDFB2012B00D0C7
:102B1000B6E00199002900D1B3E04B46002B00D16B
:102B2000AFE05D230322E25400232366A1634A46FB
:102B3000A287E28723644422A3520232A352236570
:102B4000E36480231B02A2689A421ED023681A689D
:102B5000520603D41A6840210A431A60E023DB00BE
:102B6000E2689A423ED96368002B02D04B46012BA3
:102B700020D12368A26B1288DA60A36B0233A363AF
:102B8000E38F013B9BB2E38714E022681368402186
:102B90008B431360226811688023DB010B431360B1
:102BA000D4E7FFF769FC801BA84201D36B1C14D14A
:102BB000002D12D0E18F89B2002946D023689A688F
:102BC0009207EED5A26B1288DA60A36B0233A3637F
:102BD000E38F013B9BB2E387ECE75D230122E254E4
:102BE00003274EE06368002B02D04B46012B14D123
:102BF000A36B1B7822681373A36B0133A363E38F6A
:102C0000013B9BB2E38708E0FFF736FC801BA8423C
:102C100001D36B1C14D1002D12D0E18F89B2002991
:102C200013D023689A689207EED5A26B12781A73B4
:102C3000A36B0133A363E38F013B9BB2E387ECE714
:102C40005D230122E25403271BE03200290020000B
:102C5000FFF748FE002801D020232366A368002B3D
:102C600006D103932368DA6803929B680393039B5E
:102C7000236E002B05D15D330122E254002700E0D2
:102C800002275C230022E254380004B080BCB9461D
:102C9000F0BD0227F8E70000F0B583B00400009112
:102CA00001921E00089D5C23C35C012B00D11EE134
:102CB0005C230122C254FFF7DFFB07005D23E35CC6
:102CC000D9B26268012B0BD082235B009A4200D0FC
:102CD000FBE0A368002B00D0FDE0042900D0FCE05D
:102CE000009B002B00D1FAE0019B002B00D1F8E003
:102CF000002E00D1F7E05D23E35C042B02D05D23BE
:102D00000522E25400232366019A22644622A65239
:102D1000023AA652009AA263E687A687E364236577
:102D2000E023DB00E2689A4223D9226853687149A4
:102D30000B40536023681A68520603D41A68402176
:102D40000A431A60E023DB00E2689A4258D96368BC
:102D5000002B01D0012E0AD12368A26B1288DA6001
:102D6000A36B0233A363E38F013B9BB2E38701268E
:102D70002DE02268516880235B010B435360D9E743
:102D8000A26B1288DA60A36B0233A363E38F013B6B
:102D90009BB2E387002623689A68D20710D54622A3
:102DA000A25A92B2002A0BD0DB68226C1380236CEB
:102DB000023323644622A35A013B9BB2A35201264D
:102DC000FFF75AFBC01BA84201D36B1C13D1E38F42
:102DD0009BB2002B04D14633E35A9BB2002B63D045
:102DE00023689A689207D6D5E28F92B2002AD2D091
:102DF000012ED0D1C4E75D230122E254032065E017
:102E00006368002B01D0012E0AD1A36B1B782268C6
:102E10001373A36B0133A363E38F013B9BB2E3877F
:102E200001261DE023689A68D20710D54622A25ACF
:102E300092B2002A0BD01B7B226C1370236C0133DF
:102E400023644622A35A013B9BB2A3520126FFF7FB
:102E500013FBC01BA84201D36B1C20D1002D1ED038
:102E6000E38F9BB2002B04D14633E35A9BB2002B75
:102E70001AD023689A689207D4D5E28F92B2002ABA
:102E8000D0D0012ECED1A26B12781A73A36B01336E
:102E9000A363E38F013B9BB2E3870026C2E75D2378
:102EA0000122E254032011E03A0029002000FFF73C
:102EB00019FD002802D0202323660120236E002B59
:102EC00013D15D330122E25400E002205C23002292
:102ED000E25403B0F0BD0220F8E70220F6E701203B
:102EE000F4E70120F2E70120F0E70120EEE70220FD
:102EF000EFE7C046FFEFFFFFF0B5CE4600B584B068
:102F00000400039116001D005D23C35CDFB2012B9A
:102F100000D0BAE00433FF3342689A423DD05C23CC
:102F2000E35C012B00D1B9E05C230122E254FFF7FE
:102F3000A3FA81460399002900D1A7E0002E00D111
:102F4000A4E05D230422E25400232366216440327E
:102F5000A6520232A652A363A387E387E3642365E4
:102F6000E023DB00E2689A4224D9226853684C4986
:102F70000B40536080231B02A2689A4221D0236831
:102F80001A68520603D41A6840210A431A60E023E3
:102F9000DB00E2689A4229D94CE08368002BBED15D
:102FA0005D330422C254009533000A00FFF774FE1B
:102FB00007006EE02268516880235B010B43536079
:102FC000D8E72268136840218B4313602268136896
:102FD00034490B401360D2E7FFF74EFA4B46C01A54
:102FE000A84201D36B1C16D1002D14D04623E35AFE
:102FF0009BB2002B38D023689A68D207ECD51B7B94
:10300000226C1370236C013323644622A35A013BC4
:103010009BB2A352EAE75D230122E254032735E085
:10302000FFF72AFA4B46C01AA84201D36B1C16D1EF
:10303000002D14D04623E25A92B2002A14D02368FD
:103040009A68D207ECD5DB68226C1380236C0233BC
:1030500023644622A35A013B9BB2A352EAE75D23B5
:103060000122E254032711E04A4629002000FFF71D
:103070006DFC002801D020232366236E002B05D190
:103080005D330122E254002700E002275C23002286
:10309000E254380004B080BCB946F0BD0227F8E71E
:1030A000FFEFFFFFFFBFFFFF704700000D488546A1
:1030B000FFF7FAFF0C480D490D4A002302E0D458EF
:1030C000C4500433C4188C42F9D30A4A0A4C002372
:1030D00001E013600432A242FBD300F011F8FDF7C7
:1030E000CDFBFEE700100020000000200C000020B7
:1030F0003C3200080C00002020010020FEE7000008
:1031000070B500260C4D0D4C641BA410A64209D1CD
:10311000002600F021F80A4D0A4C641BA410A642B8
:1031200005D170BDB300EB5898470136EEE7B30008
:10313000EB5898470136F2E7343200083432000881
:10314000343200083832000803008218934200D15C
:10315000704719700133F9E7F8B5C046F8BC08BCF0
:103160009E467047F8B5C046F8BC08BC9E467047FE
:10317000D404000860040008BC03000874030008BD
:10318000BC0300089C040008BC030008740300088A
:1031900060040008600400089C0400087403000830
:1031A0007A0300087A0300087A030008AA040008DA
:1031B0006004000860040008BC03000870030008F5
:1031C000BC0300089C040008BC030008700300084E
:1031D00060040008600400089C04000870030008F4
:1031E0007A0300087A0300087A030008A60400089E
:1031F00050000000E2000000E100000002030405AE
:10320000060708090A0B0C0D0E0F1010010203042B
:1032100005060708090A0B0C0D0E0F100000000030
:0C3220000000000001020304060708097A
:08322C00DCD3FF7F010000006C
:04323400E9000008A5
:04323800C1000008C9
:0C323C00C1B3B4010400000000127A00CD
:04000005080030AD12
:00000001FF
